:100000000C9403010C942F010C942F010C942F01DC
:100010000C942F010C942F010C942F010C942F01A0
:100020000C942F010C942F010C942F010C942F0190
:100030000C942F010C942F010C942F010C942F0180
:100040000C942F010C942F010C942F010C942F0170
:100050000C942F010C942F010C942F010C94EC059F
:100060000C942F010C94E0070C94C0080C942F0101
:100070000C942F010C942F010C942F010C942F0140
:100080000C942F010C942F010C942F010C942F0130
:100090000C9418080C94FF080C942F010C942F0159
:1000A0000C942F010C942F010C942F010C942F0110
:1000B0000C942F010C942F010C942F010C942F0100
:1000C0000C942F010C942F010C942F010C945008C8
:1000D0000C943E090C942F010C9488080C947D0913
:1000E0000C942F0100002100240027002A002D007D
:1000F0003000330001010000040107010A01000083
:100100002200250028002B002E00310034000201BF
:100110000000050108010B0100002000230026005B
:1001200029002C002F00320000010000030106010D
:10013000090105050505070508080808020202026D
:100140000A0A080804040404010101010101010173
:100150000303030303030303040707070C0C0C0C3E
:100160000C0C0C0C02020202060606060606060627
:100170000B0B0B0B0B0B0B0B0102102020080810B4
:100180002040102040800201020108040201010207
:1001900004081020408080402010080402018004E0
:1001A000020180402010080402010804020101023B
:1001B0000408102040800102040810204080000044
:1001C000090A02080B0C0D070603040100000000D9
:1001D000000000000000000000000000000000001F
:1001E0000000000000000000000011100F000000DF
:1001F00000000000000000000000000000000000FF
:1002000000000000E70A11241FBECFEFD1E2DEBFDD
:10021000CDBF00E00CBF12E0A0E0B2E0E6E5FBE1FC
:1002200000E00BBF02C007900D92AA39B107D9F7C1
:1002300015E0AAE9B2E001C01D92A734B107E1F7C9
:1002400012E0C6E0D2E004C02297FE010E94A50D94
:10025000C430D107C9F70E9491040C945F0D0C942F
:1002600000002F923F924F925F926F927F928F92F7
:100270009F92AF92BF92CF92DF92EF92FF920F9335
:100280001F93CF93DF931B012C0137014801CA0153
:10029000B901A80197010E94810DAC01CB01DA01DF
:1002A0005C016D01EE24FF248701CFE1D0E0D20193
:1002B000C1010C2E04C0880F991FAA1FBB1F0A94EE
:1002C000D2F7B7FF0FC0EA0CFB1C0C1D1D1DC801A7
:1002D000B701A40193010E94810DAC01CB01DA01A9
:1002E0007C018D0121978FEFCF3FD80781F0AA0CB9
:1002F000BB1CCC1CDD1CC601B501A40193010E94EE
:10030000810DAC01CB01DA015C016D01D0CFB701E9
:10031000C801DF91CF911F910F91FF90EF90DF9077
:10032000CF90BF90AF909F908F907F906F905F9095
:100330004F903F902F9008952F923F924F925F924F
:100340006F927F928F929F92AF92BF92CF92DF92E5
:10035000EF92FF920F931F93DF93CF9300D000D0C3
:10036000CDB7DEB729833A834B835C8337014801DD
:10037000A80197010E94810D1B012C0191E0A92E7B
:10038000B12CC12CD12C1E821D8289819A81AB8116
:10039000BC810D8004C0B695A795979587950A9462
:1003A000D2F780FF0AC0C601B5019101A201840104
:1003B00073010E9431015B016C01B101C201910125
:1003C000A201840173010E9431011B012C018D8166
:1003D0009E8101969E838D838097B9F6B501C601F3
:1003E00026960FB6F894DEBF0FBECDBFCF91DF913A
:1003F0001F910F91FF90EF90DF90CF90BF90AF9043
:100400009F908F907F906F905F904F903F902F9034
:1004100008958DE00E94B00708954F925F926F9209
:100420007F928F929F92AF92BF92CF92DF92EF9284
:10043000FF920F931F9358E2452E55E0552EC201AF
:100440000E94730A3C01C2010E94730A7C01C2012E
:100450000E94730A5C01C2010E94730A0027F7FC24
:100460000095102F102F0F2DFE2CEE24CC24B7FC5E
:10047000C094DC2C6501BB24AA24EA28FB280C29A3
:100480001D29882477FC8094982CE628F7280829D1
:100490001929AA2797FDA095BA2FB82FAA2799271F
:1004A0008827E82AF92A0A2B1B2BB701C8011F91BC
:1004B0000F91FF90EF90DF90CF90BF90AF909F9003
:1004C0008F907F906F905F904F900895AF92BF9202
:1004D000CF92DF92EF92FF920F931F9359016A011F
:1004E00030704070507026273727482759272A3008
:1004F00031054105510529F02D30310541055105E2
:1005000049F48BEC94E06AE00E94AE0A8BEC94E034
:100510006DE003C08BEC94E0622F0E94AE0AC6012E
:10052000B501807090702FE83CEB40E050E00E94F5
:10053000620D7B018C01B601882799270E94620D0C
:100540009B01AC01FFE05695479537952795FA95A5
:10055000D1F72E0D3F1D401F511F7F778070907087
:10056000CB0177276627260F371F481F591F57FFD4
:1005700004C02F5F3F4F4F4F5F47B901CA011F9122
:100580000F91FF90EF90DF90CF90BF90AF900895C4
:10059000AF92BF92CF92DF92EF92FF920F931F9391
:1005A0005B016C0179018A018BEC94E06A2D0E9459
:1005B000AE0AA80197013070407050702A253B2583
:1005C0004C255D2588E295E0622F0E94AE0AC801A5
:1005D000B701807090702FE83CEB40E050E00E9443
:1005E000620D5B016C01780100271127C801B7017A
:1005F0000E94620D9B01AC011FE05695479537950F
:1006000027951A95D1F72A0D3B1D4C1D5D1D7F774F
:1006100080709070CB0177276627260F371F481F01
:10062000591F57FF04C02F5F3F4F4F4F5F47B9011E
:10063000CA011F910F91FF90EF90DF90CF90BF9074
:10064000AF900895CF92DF92EF92FF920F931F9396
:100650007B018C0148E2C42E45E0D42EC6016E2DEC
:100660000E94AE0A5527412F302F2F2DC601622F31
:100670000E94AE0A980144275527C601622F0E94A6
:10068000AE0AE12EFF2400271127C6016E2D0E941D
:10069000AE0A1F910F91FF90EF90DF90CF900895D9
:1006A0008F929F92AF92BF92CF92DF92EF92FF9282
:1006B0001F93CF93DF93182F4A015B010E943406EA
:1006C0006B017C01C80CD91CEA1CFB1CC12FD0E0BB
:1006D00088E295E00E94420A8C179D0784F4B7FCDB
:1006E00007C00E9434066C157D058E059F0538F401
:1006F00061E070E080E090E00E944206E9CF88E28D
:1007000095E00E94420A20E08C179D070CF021E042
:10071000822FDF91CF911F91FF90EF90DF90CF90CC
:10072000BF90AF909F908F9008951F93CF93DF93CA
:10073000EC01BAC0209791F488E295E063E40E944E
:10074000AE0A60919E0270919F028091A0029091EA
:10075000A1020E942203C1E0D0E0A6C0C130D105B1
:1007600009F585E048EE53E060E070E00E94500338
:10077000882309F49EC088E295E00E94730A8134C0
:1007800009F097C00E940D0260939A0270939B0239
:1007900080939C0290939D0288E295E061E40E9420
:1007A000AE0A7AC0C230D105A1F481E048EE53E030
:1007B00060E070E00E945003882309F475C088E26D
:1007C00095E00E94730A833409F06EC0C3E0D0E064
:1007D0006BC0C330D10531F584E048EE53E060E0F2
:1007E00070E00E945003882309F45CC00E940D024F
:1007F00060939E0270939F028093A0029093A10247
:1008000088E295E061E40E94AE0A60919A027091DC
:100810009B0280919C0290919D020E942203C4E061
:10082000D0E042C0C430D10599F481E048EE53E0F5
:1008300060E070E00E945003182F88E295E00E946B
:10084000730A112379F1813439F1833469F527C0B2
:10085000C530D10561F484E048EE53E060E070E01B
:100860000E9450038823F1F0C6E0D0E01DC0C630DE
:10087000D105D1F481E048EE53E060E070E00E94E1
:100880005003182F88E295E00E94730A112351F05B
:10089000833429F0813441F4C7E0D0E005C0C5E0DD
:1008A000D0E002C0C2E0D0E0C730D10509F042CFAD
:1008B00003C0C0E0D0E0F8CFDF91CF911F91089541
:1008C000EF92FF920F931F93CF93DF93EE24FF24B9
:1008D0008701C0E0D0E081E00E94B805AA2797FD1B
:1008E000A095BA2F81709070A070B070E80EF91EBC
:1008F0000A1F1B1FEE0CFF1C001F111F62E370E09C
:1009000080E090E00E9442062196CF31D10519F790
:10091000B701C801DF91CF911F910F91FF90EF9028
:100920000895AF92BF92CF92DF92EF92FF920F9312
:100930001F93CF93DF930E949B068DE060E00E949F
:10094000FD068BEC94E040E855E260E070E00E9428
:10095000BC0988E295E040E855E260E070E00E9462
:10096000BC090E940902EC018BEC94E060E072E0AB
:100970000E94490D8BEC94E0BE014AE050E00E94D9
:100980002A0D8BEC94E067E072E00E944C0D0E940F
:1009900060045B016C018FEFA8168FEFB8068FEF34
:1009A000C8068FE7D80698F78BEC94E06EE272E009
:1009B0000E94490D8BEC94E0B601A5012AE030E0DD
:1009C0000E94D60C67EA71E480E090E0A6019501F0
:1009D000FFEFEF2EFFEFFF2EFFEF0F2FFFE71F2F91
:1009E0000E949C0160939A0270939B0280939C02E8
:1009F00090939D0267EA71E480E090E0A601950182
:100A00000E949C0160939E0270939F028093A002BB
:100A10009093A102CD2B19F082E090E002C080E01B
:100A200090E00E9495038DE00E94B007019759F570
:100A30008BEC94E06CE372E00E94490D40919E02C1
:100A400050919F026091A0027091A1028BEC94E002
:100A50002AE030E00E94D60C8BEC94E063E472E074
:100A60000E94490D8BEC94E0B601A5012AE030E02C
:100A70000E94D60C60919E0270919F028091A0020C
:100A80009091A1022AC08BEC94E068E572E00E948C
:100A9000490D40919A0250919B0260919C02709185
:100AA0009D028BEC94E02AE030E00E94D60C8BECA7
:100AB00094E06FE572E00E94490D8BEC94E0B60182
:100AC000A5012AE030E00E94D60C60919A02709154
:100AD0009B0280919C0290919D02A6019501EFEFEF
:100AE000EE2EEFEFFE2EEFEF0E2FEFE71E2F0E9400
:100AF0009C017B018C015B016C018BEC94E064E751
:100B000072E00E94490D8BEC94E0A701B8012AE045
:100B100030E00E94D60C88E295E00E94420A892BC0
:100B200081F088E295E00E94730AAA2797FDA095BC
:100B3000BA2FBC01CD019701A8010E9466027B017A
:100B40008C018BEC94E00E94420A892B21F38BEC00
:100B500094E00E94730AAA2797FDA095BA2FBC01C2
:100B6000CD019501A6010E94C8025B016C01D3CFA3
:100B7000382F863308F0365320917B00832F8695DB
:100B80008695869590E08170907043E0880F991F5C
:100B90004A95E1F7277F282B20937B0037708091BF
:100BA00088028295880F880F807C832B80937C003D
:100BB00080917A00806480937A0080917A0086FD2B
:100BC000FCCF2091780040917900942F80E030E0B4
:100BD000282B392BC90108951F920F920FB60F923F
:100BE00011242F933F938F939F93AF93BF93809143
:100BF000A6029091A702A091A802B091A9023091FB
:100C0000AA020196A11DB11D232F2D5F2D3720F0C3
:100C10002D570196A11DB11D2093AA028093A60213
:100C20009093A702A093A802B093A9028091A20278
:100C30009091A302A091A402B091A5020196A11DDA
:100C4000B11D8093A2029093A302A093A402B0933B
:100C5000A502BF91AF919F918F913F912F910F90DE
:100C60000FBE0F901F9018958FB7F8942091A60291
:100C70003091A7024091A8025091A9028FBFB901FB
:100C8000CA0108959B01AC017FB7F8948091A2023C
:100C90009091A302A091A402B091A50266B5A89B71
:100CA00005C06F3F19F00196A11DB11D7FBFBA2F7E
:100CB000A92F982F8827860F911DA11DB11D62E0D5
:100CC000880F991FAA1FBB1F6A95D1F7BC012DC0C1
:100CD000FFB7F8948091A2029091A302A091A40280
:100CE000B091A502E6B5A89B05C0EF3F19F00196AB
:100CF000A11DB11DFFBFBA2FA92F982F88278E0FD6
:100D0000911DA11DB11DE2E0880F991FAA1FBB1FF5
:100D1000EA95D1F7861B970B885E9340C8F2215065
:100D200030404040504068517C4F2115310541050D
:100D3000510571F60895789484B5826084BD84B5B8
:100D4000816084BD85B5826085BD85B5816085BDC6
:100D5000EEE6F0E0808181608083E1E8F0E01082DF
:100D6000808182608083808181608083E0E8F0E020
:100D7000808181608083E1EBF0E08081846080830A
:100D8000E0EBF0E0808181608083E1E9F0E0808148
:100D900082608083808181608083E0E9F0E08081EF
:100DA00081608083E1EAF0E08081826080838081DD
:100DB00081608083E0EAF0E0808181608083E1E20D
:100DC000F1E0808182608083808181608083E0E2C5
:100DD000F1E0808181608083EAE7F0E080818460D7
:100DE0008083808182608083808181608083808134
:100DF000806880831092C1000895CF93DF93482FBD
:100E000050E0CA0188589E4FFC0134914E5C5E4F01
:100E1000FA018491882369F190E0880F991FFC0101
:100E2000EC51FF4FA591B491FC01E250FF4FC591E9
:100E3000D491662351F42FB7F8948C91932F909509
:100E400089238C93888189230BC0623061F42FB78A
:100E5000F8948C91932F909589238C938881832B80
:100E600088832FBF06C09FB7F8948C91832B8C93F7
:100E70009FBFDF91CF910895893009F449C08A302E
:100E8000A0F4843051F1853040F4823079F1833020
:100E900000F5813009F063C026C0873079F18830D1
:100EA00098F5863009F05BC025C08D3009F442C04A
:100EB0008E3028F48B30B1F18C30C0F52DC08031EC
:100EC00009F442C0813109F445C08F3009F047C0B0
:100ED00037C0809180008F7703C0809180008F7D24
:100EE00080938000089584B58F7702C084B58F7D8C
:100EF00084BD08958091B0008F7703C08091B000C9
:100F00008F7D8093B0000895809190008F7707C007
:100F1000809190008F7D03C080919000877F8093A7
:100F2000900008958091A0008F7707C08091A00065
:100F30008F7D03C08091A000877F8093A0000895DB
:100F4000809120018F7703C0809120018F7D809355
:100F50002001089580912001877F809320010895CA
:100F60000F931F93482F50E0CA0182549E4FFC01FB
:100F70002491CA0188589E4FFC0104914E5C5E4F3B
:100F8000FA011491112319F420E030E015C0222356
:100F900019F0822F0E943C07812F90E0880F991F43
:100FA000885E9E4FFC01A591B4918C9120E030E0C9
:100FB000802311F021E030E0C9011F910F910895C5
:100FC0001F920F920FB60F920BB60F9211242F9310
:100FD0003F934F938F939F93EF93FF934091C6005E
:100FE0002091EB023091EC022F5F3F4F2F73307056
:100FF0008091ED029091EE022817390759F0E091A7
:10100000EB02F091EC02E555FD4F40833093EC028A
:101010002093EB02FF91EF919F918F914F913F9120
:101020002F910F900BBE0F900FBE0F901F90189531
:101030001F920F920FB60F920BB60F9211242F939F
:101040003F934F938F939F93EF93FF934091CE00E5
:1010500020917303309174032F5F3F4F2F733070D3
:1010600080917503909176032817390759F0E09124
:101070007303F0917403ED5CFC4F40833093740371
:1010800020937303FF91EF919F918F914F913F9127
:101090002F910F900BBE0F900FBE0F901F901895C1
:1010A0001F920F920FB60F920BB60F9211242F932F
:1010B0003F934F938F939F93EF93FF934091D6006D
:1010C0002091FB033091FC032F5F3F4F2F73307053
:1010D0008091FD039091FE032817390759F0E091A4
:1010E000FB03F091FC03E554FC4F40833093FC0379
:1010F0002093FB03FF91EF919F918F914F913F912F
:101100002F910F900BBE0F900FBE0F901F90189550
:101110001F920F920FB60F920BB60F9211242F93BE
:101120003F934F938F939F93EF93FF93409136019B
:1011300020918304309184042F5F3F4F2F733070D0
:1011400080918504909186042817390759F0E09121
:101150008304F0918404ED5BFB4F4083309384045F
:1011600020938304FF91EF919F918F914F913F9135
:101170002F910F900BBE0F900FBE0F901F901895E0
:101180001F920F920FB60F920BB60F9211242F934E
:101190003F938F939F93EF93FF9320912F03309171
:1011A000300380913103909132032817390731F4CD
:1011B0008091C1008F7D8093C10014C0E091310304
:1011C000F0913203E151FD4F2081809131039091E4
:1011D000320301968F7390709093320380933103A2
:1011E0002093C600FF91EF919F918F913F912F9196
:1011F0000F900BBE0F900FBE0F901F9018951F926F
:101200000F920FB60F920BB60F9211242F933F93AC
:101210008F939F93EF93FF932091B7033091B8037F
:101220008091B9039091BA032817390731F480915E
:10123000C9008F7D8093C90014C0E091B903F0917B
:10124000BA03E958FC4F20818091B9039091BA0309
:1012500001968F7390709093BA038093B903209393
:10126000CE00FF91EF919F918F913F912F910F9021
:101270000BBE0F900FBE0F901F9018951F920F92EC
:101280000FB60F920BB60F9211242F933F938F93AB
:101290009F93EF93FF9320913F04309140048091FE
:1012A0004104909142042817390731F48091D1000C
:1012B0008F7D8093D10014C0E0914104F0914204ED
:1012C000E150FC4F208180914104909142040196AD
:1012D0008F73907090934204809341042093D600C2
:1012E000FF91EF919F918F913F912F910F900BBEA6
:1012F0000F900FBE0F901F9018951F920F920FB670
:101300000F920BB60F9211242F933F938F939F93BD
:10131000EF93FF932091C7043091C8048091C904D2
:101320009091CA042817390731F4809131018F7DDB
:101330008093310114C0E091C904F091CA04E957C7
:10134000FB4F20818091C9049091CA0401968F734C
:1013500090709093CA048093C90420933601FF9142
:10136000EF919F918F913F912F910F900BBE0F9016
:101370000FBE0F901F901895AF92BF92DF92EF9221
:10138000FF920F931F93CF93DF93EC017A018B01B0
:10139000DD24403081EE580780E0680780E0780760
:1013A00011F0DD24D39491E0A92EB12CEC89FD89B4
:1013B000DD2069F0C5010E8C02C0880F991F0A94C8
:1013C000E2F7808360E079E08DE390E005C0108271
:1013D00060E874E88EE190E0A80197010E94810D19
:1013E00021503040404050405695479537952795BD
:1013F00080E12030380720F0DD2011F0DD24D6CF49
:10140000E889F9893083EA89FB892083EE89FF899D
:10141000408121E030E0C9010A8C02C0880F991F89
:101420000A94E2F7482B4083EE89FF894081C90185
:101430000B8C02C0880F991F0A94E2F7482B408357
:10144000EE89FF894081C9010C8C02C0880F991F69
:101450000A94E2F7482B4083EE89FF8980810D8C46
:1014600002C0220F331F0A94E2F72095282320831D
:10147000DF91CF911F910F91FF90EF90DF90BF9080
:10148000AF900895DC011C96ED91FC911D97E05CF6
:10149000FF4F2191319180819181281B390B2F734E
:1014A0003070C9010895DC011C96ED91FC911D97E7
:1014B000E05CFF4F20813181E054F040DF01AE5B02
:1014C000BF4F8D919C9111972817390719F42FEF71
:1014D0003FEF07C08D919C91E80FF91F8081282F65
:1014E00030E0C9010895DC011C96ED91FC911D9737
:1014F000E05CFF4F20813181E054F040DF01AE5BC2
:10150000BF4F8D919C9111972817390719F42FEF30
:101510003FEF10C08D919C911197E80FF91F20812A
:101520008D919C91119701968F73907011969C9359
:101530008E9330E0C9010895FC0186859785DC0112
:10154000A05CBF4FFC01EE5BFF4F2D913C911197CA
:101550008081918128173907C1F70895CF93DF93D0
:10156000EC01EE85FF85E05CFF4F20813181E05486
:10157000F0402F5F3F4F2F733070DF01AE5BBF4FE6
:101580008D919C91119728173907D1F3E05CFF4F9B
:1015900080819181E054F040E80FF91F6083EE856F
:1015A000FF85E05CFF4F31832083EE89FF89208136
:1015B00081E090E00D8C02C0880F991F0A94E2F739
:1015C000282B208381E090E0DF91CF9108951F9335
:1015D0001092CE041092CD0428EE33E040E050E0AB
:1015E0002093CF043093D0044093D1045093D2047D
:1015F0006DE872E07093CC046093CB048BEA92E0C8
:101600009093D8048093D7048FEE92E09093DA04FD
:101610008093D90485EC90E09093DC048093DB0404
:1016200084EC90E09093DE048093DD0480EC90E005
:101630009093E0048093DF0481EC90E09093E204C7
:101640008093E10486EC90E09093E4048093E304BB
:1016500014E01093E504B3E0B093E604A7E0A09390
:10166000E704F5E0F093E804E1E0E093E904109288
:10167000ED041092EC042093EE043093EF044093B9
:10168000F0045093F1047093EB046093EA0483E355
:1016900093E09093F7048093F60487E793E09093A8
:1016A000F9048093F8048DEC90E09093FB04809310
:1016B000FA048CEC90E09093FD048093FC0488EC99
:1016C00090E09093FF048093FE0489EC90E0909367
:1016D0000105809300058EEC90E0909303058093C4
:1016E000020510930405B0930505A0930605F09339
:1016F0000705E093080510920C0510920B05209346
:101700000D0530930E0540930F055093100570930F
:101710000A05609309058BEB93E09093160580937F
:1017200015058FEF93E0909318058093170585EDCD
:1017300090E090931A058093190584ED90E09093C2
:101740001C0580931B0580ED90E090931E0580930F
:101750001D0581ED90E09093200580931F0586ED97
:1017600090E0909322058093210510932305B09378
:101770002405A0932505F0932605E09327051092F4
:101780002B0510922A0520932C0530932D054093AC
:101790002E0550932F05709329056093280583E447
:1017A00094E0909335058093340587E894E0909316
:1017B00037058093360585E391E090933905809352
:1017C000380584E391E090933B0580933A0580E3EC
:1017D00091E090933D0580933C0581E391E09093E7
:1017E0003F0580933E0586E391E090934105809309
:1017F000400510934205B0934305A0934405F09330
:101800004505E09346051F910895CF92DF92EF9230
:10181000FF920F931F93CF93DF937C016B018A019B
:10182000C0E0D0E00FC0D6016D916D01D701ED9100
:10183000FC910190F081E02DC7011995C80FD91FC7
:10184000015010400115110571F7CE01DF91CF91C4
:101850001F910F91FF90EF90DF90CF900895EF923E
:10186000FF920F931F938C01DC01ED91FC9101908D
:10187000F081E02D6DE019957C01D801ED91FC918E
:101880000190F081E02DC8016AE019959C012E0DB0
:101890003F1DC9011F910F91FF90EF900895CF93C5
:1018A000DF93DB010D900020E9F71197A61BB70B22
:1018B000EC01E881F9810280F381E02DAD011995F9
:1018C000DF91CF9108954F925F927F928F929F9276
:1018D000AF92BF92CF92DF92EF92FF920F931F933E
:1018E000DF93CF93CDB7DEB7A1970FB6F894DEBFE5
:1018F0000FBECDBF2C01742ECB01223008F42AE09C
:1019000019A231E2C32ED12CCC0EDD1E822E9924D9
:10191000AA24BB24672D752FA50194010E94810D77
:1019200079018A01C801B701A50194010E94620DE5
:10193000472D461B0894C108D1084A3014F4405D75
:1019400001C0495CF6014083E114F1040105110571
:1019500021F07E2C5F2DC801DDCFC201B6010E94AF
:101960004F0CA1960FB6F894DEBF0FBECDBFCF913E
:10197000DF911F910F91FF90EF90DF90CF90BF907C
:10198000AF909F908F907F905F904F900895DC0173
:101990002115310541F4ED91FC910190F081E02D8C
:1019A000642F199508950E94630C0895EF92FF9299
:1019B0000F931F937C010E94C70C8C01C7010E94EA
:1019C0002F0C9C01200F311FC9011F910F91FF9017
:1019D000EF900895CF92DF92EF92FF920F931F93B3
:1019E000CF93DF93EC016A017B012115310541F4AE
:1019F000E881F9810190F081E02D642F19951FC0D5
:101A00002A303105D1F477FF17C0E881F9810190C0
:101A1000F081E02D6DE219958C0144275527BA011C
:101A20004C195D096E097F09CE012AE00E94630C02
:101A30009801280F391F04C02AE00E94630C9C0102
:101A4000C901DF91CF911F910F91FF90EF90DF902F
:101A5000CF900895CF92DF92EF92FF920F931F9352
:101A60006C017B019A010027F7FC0095102FB8014B
:101A7000A7010E94EA0C8C01C6010E942F0C080FDE
:101A8000191FC8011F910F91FF90EF90DF90CF9029
:101A900008950E944F0C0895EF92FF920F931F93A9
:101AA0007C010E944F0C8C01C7010E942F0C080F73
:101AB000191FC8011F910F91FF90EF900895F8949E
:101AC0000C94A90D629FD001739FF001829FE00DDD
:101AD000F11D649FE00DF11D929FF00D839FF00DAD
:101AE000749FF00D659FF00D9927729FB00DE11D59
:101AF000F91F639FB00DE11DF91FBD01CF01112436
:101B00000895A1E21A2EAA1BBB1BFD010DC0AA1F3E
:101B1000BB1FEE1FFF1FA217B307E407F50720F056
:101B2000A21BB30BE40BF50B661F771F881F991FD1
:101B30001A9469F760957095809590959B01AC011A
:101B4000BD01CF010895EE0FFF1F0590F491E02D28
:061B50001994F894FFCF88
:101B56006D6F64653A200047656E65726174696EE3
:101B6600672070726976617465206B65792E2050E6
:101B76006C6561736520776169742E2E2E00707214
:101B860069766174655F6B65793A2000636B657988
:101B96003A200053657276657220707269766174B8
:101BA600655F6B65793A2000736B65793A2000436F
:101BB6006C69656E7420707269766174655F6B65B9
:101BC600793A200054686520736861726564206BF9
:101BD60065792069733A20000100000000AE0A050D
:0A1BE6000C420A730A530A9C0A001D
:00000001FF
