:100000000C9403010C942F010C942F010C942F01DC
:100010000C942F010C942F010C942F010C942F01A0
:100020000C942F010C942F010C942F010C942F0190
:100030000C942F010C942F010C942F010C942F0180
:100040000C942F010C942F010C942F010C942F0170
:100050000C942F010C942F010C942F010C94460644
:100060000C942F010C943A080C941A090C942F014B
:100070000C942F010C942F010C942F010C942F0140
:100080000C942F010C942F010C942F010C942F0130
:100090000C9472080C9459090C942F010C942F01A4
:1000A0000C942F010C942F010C942F010C942F0110
:1000B0000C942F010C942F010C942F010C942F0100
:1000C0000C942F010C942F010C942F010C94AA086E
:1000D0000C9498090C942F010C94E2080C94D70905
:1000E0000C942F0100002100240027002A002D007D
:1000F0003000330001010000040107010A01000083
:100100002200250028002B002E00310034000201BF
:100110000000050108010B0100002000230026005B
:1001200029002C002F00320000010000030106010D
:10013000090105050505070508080808020202026D
:100140000A0A080804040404010101010101010173
:100150000303030303030303040707070C0C0C0C3E
:100160000C0C0C0C02020202060606060606060627
:100170000B0B0B0B0B0B0B0B0102102020080810B4
:100180002040102040800201020108040201010207
:1001900004081020408080402010080402018004E0
:1001A000020180402010080402010804020101023B
:1001B0000408102040800102040810204080000044
:1001C000090A02080B0C0D070603040100000000D9
:1001D000000000000000000000000000000000001F
:1001E0000000000000000000000011100F000000DF
:1001F00000000000000000000000000000000000FF
:1002000000000000410B11241FBECFEFD1E2DEBF82
:10021000CDBF00E00CBF12E0A0E0B2E0EAE0FCE1FC
:1002200000E00BBF02C007900D92A03FB107D9F7C5
:1002300015E0A0EFB2E001C01D92AD39B107E1F7C2
:1002400012E0C6E0D2E004C02297FE010E94FF0D3A
:10025000C430D107C9F70E94DE040C94B90D0C9488
:1002600000002F923F924F925F926F927F928F92F7
:100270009F92AF92BF92CF92DF92EF92FF920F9335
:100280001F93CF93DF931B012C0137014801CA0153
:10029000B901A80197010E94DB0DAC01CB01DA0185
:1002A0005C016D01EE24FF248701CFE1D0E0D20193
:1002B000C1010C2E04C0880F991FAA1FBB1F0A94EE
:1002C000D2F7B7FF0FC0EA0CFB1C0C1D1D1DC801A7
:1002D000B701A40193010E94DB0DAC01CB01DA014F
:1002E0007C018D0121978FEFCF3FD80781F0AA0CB9
:1002F000BB1CCC1CDD1CC601B501A40193010E94EE
:10030000DB0DAC01CB01DA015C016D01D0CFB7018F
:10031000C801DF91CF911F910F91FF90EF90DF9077
:10032000CF90BF90AF909F908F907F906F905F9095
:100330004F903F902F9008952F923F924F925F924F
:100340006F927F928F929F92AF92BF92CF92DF92E5
:10035000EF92FF920F931F93DF93CF9300D000D0C3
:10036000CDB7DEB729833A834B835C8337014801DD
:10037000A80197010E94DB0D1B012C0191E0A92E21
:10038000B12CC12CD12C1E821D8289819A81AB8116
:10039000BC810D8004C0B695A795979587950A9462
:1003A000D2F780FF0AC0C601B5019101A201840104
:1003B00073010E9431015B016C01B101C201910125
:1003C000A201840173010E9431011B012C018D8166
:1003D0009E8101969E838D838097B9F6B501C601F3
:1003E00026960FB6F894DEBF0FBECDBFCF91DF913A
:1003F0001F910F91FF90EF90DF90CF90BF90AF9043
:100400009F908F907F906F905F904F903F902F9034
:1004100008958DE00E940A0808954F925F926F92AE
:100420007F928F929F92AF92BF92CF92DF92EF9284
:10043000FF920F931F935EE7452E55E0552EC201A4
:100440000E94CD0A3C01C2010E94CD0A7C01C2017A
:100450000E94CD0A5C01C2010E94CD0A0027F7FC70
:100460000095102F102F0F2DFE2CEE24CC24B7FC5E
:10047000C094DC2C6501BB24AA24EA28FB280C29A3
:100480001D29882477FC8094982CE628F7280829D1
:100490001929AA2797FDA095BA2FB82FAA2799271F
:1004A0008827E82AF92A0A2B1B2BB701C8011F91BC
:1004B0000F91FF90EF90DF90CF90BF90AF909F9003
:1004C0008F907F906F905F904F900895AF92BF9202
:1004D000CF92DF92EF92FF920F931F9359016A011F
:1004E00030704070507026273727482759272A3008
:1004F00031054105510529F02D30310541055105E2
:1005000049F481E295E06AE00E94080B81E295E0FF
:100510006DE003C081E295E0622F0E94080BC601E6
:10052000B501807090702FE83CEB40E050E00E94F5
:10053000BC0D7B018C01B601882799270E94BC0D58
:100540009B01AC01FFE05695479537952795FA95A5
:10055000D1F72E0D3F1D401F511F7F778070907087
:10056000CB0177276627260F371F481F591F57FFD4
:1005700004C02F5F3F4F4F4F5F47B901CA011F9122
:100580000F91FF90EF90DF90CF90BF90AF900895C4
:10059000AF92BF92CF92DF92EF92FF920F931F9391
:1005A0005B016C0179018A0181E295E06A2D0E946C
:1005B000080BA80197013070407050702A253B2528
:1005C0004C255D258EE795E0622F0E94080BC8013F
:1005D000B701807090702FE83CEB40E050E00E9443
:1005E000BC0D5B016C01780100271127C801B70120
:1005F0000E94BC0D9B01AC011FE0569547953795B5
:1006000027951A95D1F72A0D3B1D4C1D5D1D7F774F
:1006100080709070CB0177276627260F371F481F01
:10062000591F57FF04C02F5F3F4F4F4F5F47B9011E
:10063000CA011F910F91FF90EF90DF90CF90BF9074
:10064000AF900895CF92DF92EF92FF920F931F9396
:100650007B018C014EE7C42E45E0D42EC6016E2DE1
:100660000E94080B5527412F302F2F2DC601622FD6
:100670000E94080B980144275527C601622F0E944B
:10068000080BE12EFF2400271127C6016E2D0E94C2
:10069000080B1F910F91FF90EF90DF90CF9008957E
:1006A0008F929F92AF92BF92CF92DF92EF92FF9282
:1006B0001F93CF93DF93182F4A015B010E948E0690
:1006C0006B017C01C80CD91CEA1CFB1CC12FD0E0BB
:1006D0008EE795E00E949C0A8C179D0784F4B7FC76
:1006E00007C00E948E066C157D058E059F0538F4A7
:1006F00061E070E080E090E00E949C06E9CF8EE728
:1007000095E00E949C0A20E08C179D070CF021E0E8
:10071000822FDF91CF911F91FF90EF90DF90CF90CC
:10072000BF90AF909F908F9008951F93CF93DF93CA
:10073000EC010E948E06FFC02097C1F48EE795E081
:1007400063E40E94080B6091F4027091F5028091BD
:10075000F6029091F7020E94220381E295E060E0A8
:1007600072E00E94A60DC1E0D0E0E5C0C130D10525
:1007700041F585E048EE53E060E070E00E945003F0
:10078000182F81E295E066E072E00E94A60D112329
:1007900009F4E0C08EE795E00E94CD0A813409F0AB
:1007A000D9C00E940D026093F0027093F102809311
:1007B000F2029093F3028EE795E061E40E94080B49
:1007C000B2C0C230D105D9F481E048EE53E060E018
:1007D00070E00E945003182F81E295E063E172E01F
:1007E0000E94A60D112309F4A6C08EE795E00E9491
:1007F000CD0A833409F09FC0C3E0D0E09CC0C33071
:10080000D10569F584E048EE53E060E070E00E94B5
:100810005003182F81E295E06AE172E00E94A60D74
:10082000112309F486C00E940D026093F4027093B4
:10083000F5028093F6029093F7028EE795E061E46B
:100840000E94080B6091F0027091F1028091F20217
:100850009091F3020E942203C4E0D0E06CC0C43047
:10086000D10511F581E048EE53E060E070E00E94B0
:100870005003182F81E295E06AE272E00E94A60D13
:100880008EE795E00E94CD0A112309F452C081340D
:1008900009F449C0833409F449C081E295E067E373
:1008A00072E00E94A60D47C0C530D10509F581E26E
:1008B00095E063E472E00E94A60D84E048EE53E008
:1008C00060E070E00E945003182F81E295E063E53C
:1008D00072E00E94A30D81E295E0612F70E04AE092
:1008E00050E00E94840D112321F1C6E0D0E023C026
:1008F000C630D10501F581E048EE53E060E070E0DC
:100900000E945003182F81E295E063E672E00E9496
:10091000A60D8EE795E00E94CD0A112351F0833495
:1009200029F0813441F4C7E0D0E005C0C5E0D0E053
:1009300002C0C2E0D0E0C730D10509F0FDCE81E2AF
:1009400095E060E772E00E94A60D81E0DF91CF9113
:100950001F910895C0E0D0E0EECFEF92FF920F9389
:100960001F93CF93DF93EE24FF248701C0E0D0E0F4
:1009700081E00E941206AA2797FDA095BA2F8170E8
:100980009070A070B070E80EF91E0A1F1B1FEE0CCD
:10099000FF1C001F111F62E370E080E090E00E94E6
:1009A0009C062196CF31D10519F7B701C801DF9117
:1009B000CF911F910F91FF90EF900895AF92BF924A
:1009C000CF92DF92EF92FF920F931F93CF93DF931B
:1009D0000E94F5068DE060E00E94570781E295E0F5
:1009E00040E855E260E070E00E94160A8EE795E06C
:1009F00040E855E260E070E00E94160A0E94090299
:100A0000EC0181E295E06DE772E00E94A30D81E2C6
:100A100095E0BE014AE050E00E94840D0E94AD04C2
:100A20005B016C018FEFA8168FEFB8068FEFC80639
:100A30008FE7D80698F781E295E064E872E00E94BB
:100A4000A30D81E295E0B601A5012AE030E00E9405
:100A5000300D67EA71E480E090E0A6019501AFEF08
:100A6000EA2EAFEFFA2EAFEF0A2FAFE71A2F0E9450
:100A70009C016093F0027093F1028093F2029093D4
:100A8000F30267EA71E480E090E0A60195010E941C
:100A90009C016093F4027093F5028093F6029093A8
:100AA000F702CD2B19F082E090E002C080E090E0E8
:100AB0000E9495038DE00E940A080197E9F581E202
:100AC00095E062E972E00E94A30D4091F40250911A
:100AD000F5026091F6027091F70281E295E02AE05A
:100AE00030E00E94300D81E295E069E972E00E94F9
:100AF000A30D81E295E0B601A5012AE030E00E9455
:100B0000300D6091F4027091F5028091F60290919F
:100B1000F702A6019501FFEFEF2EFFEFFF2EFFEF8B
:100B20000F2FFFE71F2F0E949C015B016C01CB017F
:100B3000D6017C018D013BC081E295E06EEA72E056
:100B40000E94A30D4091F0025091F1026091F202D7
:100B50007091F30281E295E02AE030E00E94300DCE
:100B600081E295E065EB72E00E94A30D81E295E0E1
:100B7000B601A5012AE030E00E94300D6091F0023C
:100B80007091F1028091F2029091F302A601950119
:100B9000EFEFEE2EEFEFFE2EEFEF0E2FEFE71E2F13
:100BA0000E949C015B016C01EE24FF24870181E21D
:100BB00095E06AEC72E00E94A30D81E295E0A50148
:100BC000B6012AE030E00E94300D8EE795E00E94E9
:100BD0009C0A892B81F08EE795E00E94CD0AAA2716
:100BE00097FDA095BA2FBC01CD019501A6010E94E9
:100BF00066025B016C0181E295E00E949C0A892BF0
:100C000021F381E295E00E94CD0AAA2797FDA095E5
:100C1000BA2FBC01CD01A80197010E94C8027B0137
:100C20008C01D3CF382F863308F0365320917B00C8
:100C3000832F86958695869590E08170907043E02D
:100C4000880F991F4A95E1F7277F282B20937B0077
:100C500037708091DE028295880F880F807C832B0D
:100C600080937C0080917A00806480937A008091E8
:100C70007A0086FDFCCF2091780040917900942F76
:100C800080E030E0282B392BC90108951F920F9284
:100C90000FB60F9211242F933F938F939F93AF938F
:100CA000BF938091FC029091FD02A091FE02B09151
:100CB000FF02309100030196A11DB11D232F2D5F6E
:100CC0002D3720F02D570196A11DB11D2093000353
:100CD0008093FC029093FD02A093FE02B093FF026A
:100CE0008091F8029091F902A091FA02B091FB0272
:100CF0000196A11DB11D8093F8029093F902A09373
:100D0000FA02B093FB02BF91AF919F918F913F91F7
:100D10002F910F900FBE0F901F9018958FB7F894DA
:100D20002091FC023091FD024091FE025091FF02A1
:100D30008FBFB901CA0108959B01AC017FB7F89438
:100D40008091F8029091F902A091FA02B091FB0211
:100D500066B5A89B05C06F3F19F00196A11DB11D96
:100D60007FBFBA2FA92F982F8827860F911DA11D0D
:100D7000B11D62E0880F991FAA1FBB1F6A95D1F7AA
:100D8000BC012DC0FFB7F8948091F8029091F90250
:100D9000A091FA02B091FB02E6B5A89B05C0EF3F17
:100DA00019F00196A11DB11DFFBFBA2FA92F982FD1
:100DB00088278E0F911DA11DB11DE2E0880F991F9C
:100DC000AA1FBB1FEA95D1F7861B970B885E93403D
:100DD000C8F2215030404040504068517C4F2115AE
:100DE00031054105510571F60895789484B5826006
:100DF00084BD84B5816084BD85B5826085BD85B5BF
:100E0000816085BDEEE6F0E0808181608083E1E86D
:100E1000F0E01082808182608083808181608083A5
:100E2000E0E8F0E0808181608083E1EBF0E08081A8
:100E300084608083E0EBF0E0808181608083E1E981
:100E4000F0E0808182608083808181608083E0E93E
:100E5000F0E0808181608083E1EAF0E0808182605F
:100E60008083808181608083E0EAF0E0808181601E
:100E70008083E1E2F1E08081826080838081816013
:100E80008083E0E2F1E0808181608083EAE7F0E046
:100E900080818460808380818260808380818160A2
:100EA00080838081806880831092C1000895CF93F1
:100EB000DF93482F50E0CA0188589E4FFC013491BF
:100EC0004E5C5E4FFA018491882369F190E0880FAF
:100ED000991FFC01EC51FF4FA591B491FC01E25028
:100EE000FF4FC591D491662351F42FB7F8948C919C
:100EF000932F909589238C93888189230BC062302E
:100F000061F42FB7F8948C91932F909589238C934B
:100F10008881832B88832FBF06C09FB7F8948C915C
:100F2000832B8C939FBFDF91CF910895893009F473
:100F300049C08A30A0F4843051F1853040F48230C9
:100F400079F1833000F5813009F063C026C0873025
:100F500079F1883098F5863009F05BC025C08D3076
:100F600009F442C08E3028F48B30B1F18C30C0F5DA
:100F70002DC0803109F442C0813109F445C08F3061
:100F800009F047C037C0809180008F7703C08091FF
:100F900080008F7D80938000089584B58F7702C094
:100FA00084B58F7D84BD08958091B0008F7703C094
:100FB0008091B0008F7D8093B00008958091900063
:100FC0008F7707C0809190008F7D03C08091900043
:100FD000877F8093900008958091A0008F7707C04D
:100FE0008091A0008F7D03C08091A000877F8093B7
:100FF000A0000895809120018F7703C08091200187
:101000008F7D80932001089580912001877F8093B8
:10101000200108950F931F93482F50E0CA01825476
:101020009E4FFC012491CA0188589E4FFC010491F7
:101030004E5C5E4FFA011491112319F420E030E068
:1010400015C0222319F0822F0E949607812F90E06D
:10105000880F991F885E9E4FFC01A591B4918C91D9
:1010600020E030E0802311F021E030E0C9011F9141
:101070000F9108951F920F920FB60F920BB60F9219
:1010800011242F933F934F938F939F93EF93FF934D
:101090004091C60020914103309142032F5F3F4FA2
:1010A0002F733070809143039091440328173907C0
:1010B00059F0E0914103F0914203EF5FFC4F408310
:1010C0003093420320934103FF91EF919F918F91C1
:1010D0004F913F912F910F900BBE0F900FBE0F902D
:1010E0001F9018951F920F920FB60F920BB60F928A
:1010F00011242F933F934F938F939F93EF93FF93DD
:101100004091CE002091C9033091CA032F5F3F4F19
:101110002F7330708091CB039091CC03281739073F
:1011200059F0E091C903F091CA03E757FC4F40839F
:101130003093CA032093C903FF91EF919F918F9140
:101140004F913F912F910F900BBE0F900FBE0F90BC
:101150001F9018951F920F920FB60F920BB60F9219
:1011600011242F933F934F938F939F93EF93FF936C
:101170004091D60020915104309152042F5F3F4F8F
:101180002F733070809153049091540428173907BD
:1011900059F0E0915104F0915204EF5EFB4F40830F
:1011A0003093520420935104FF91EF919F918F91BE
:1011B0004F913F912F910F900BBE0F900FBE0F904C
:1011C0001F9018951F920F920FB60F920BB60F92A9
:1011D00011242F933F934F938F939F93EF93FF93FC
:1011E000409136012091D9043091DA042F5F3F4FAE
:1011F0002F7330708091DB049091DC04281739073D
:1012000059F0E091D904F091DA04E756FB4F40839E
:101210003093DA042093D904FF91EF919F918F913D
:101220004F913F912F910F900BBE0F900FBE0F90DB
:101230001F9018951F920F920FB60F920BB60F9238
:1012400011242F933F938F939F93EF93FF932091BC
:101250008503309186038091870390918803281736
:10126000390731F48091C1008F7D8093C10014C093
:10127000E0918703F0918803EB5BFC4F2081809124
:1012800087039091880301968F73907090938803E1
:10129000809387032093C600FF91EF919F918F91D8
:1012A0003F912F910F900BBE0F900FBE0F901F908C
:1012B00018951F920F920FB60F920BB60F92112432
:1012C0002F933F938F939F93EF93FF9320910D0460
:1012D00030910E0480910F04909110042817390763
:1012E00031F48091C9008F7D8093C90014C0E091D2
:1012F0000F04F0911004E353FC4F208180910F0400
:101300009091100401968F739070909310048093C5
:101310000F042093CE00FF91EF919F918F913F9109
:101320002F910F900BBE0F900FBE0F901F9018952E
:101330001F920F920FB60F920BB60F9211242F939C
:101340003F938F939F93EF93FF9320919504309158
:10135000960480919704909198042817390731F4E6
:101360008091D1008F7D8093D10014C0E0919704CB
:10137000F0919804EB5AFB4F208180919704909153
:10138000980401968F7390709093980480939704BB
:101390002093D600FF91EF919F918F913F912F91D4
:1013A0000F900BBE0F900FBE0F901F9018951F92BD
:1013B0000F920FB60F920BB60F9211242F933F93FB
:1013C0008F939F93EF93FF9320911D0530911E05FE
:1013D00080911F05909120052817390731F48091DD
:1013E00031018F7D8093310114C0E0911F05F09190
:1013F0002005E352FB4F208180911F05909120052D
:1014000001968F7390709093200580931F05209311
:101410003601FF91EF919F918F913F912F910F9006
:101420000BBE0F900FBE0F901F901895AF92BF92FA
:10143000DF92EF92FF920F931F93CF93DF93EC0114
:101440007A018B01DD24403081EE580780E0680787
:1014500080E0780711F0DD24D39491E0A92EB12C1F
:10146000EC89FD89DD2069F0C5010E8C02C0880F72
:10147000991F0A94E2F7808360E079E08DE390E0C1
:1014800005C0108260E874E88EE190E0A801970141
:101490000E94DB0D2150304040405040569547950A
:1014A0003795279580E12030380720F0DD2011F0B6
:1014B000DD24D6CFE889F9893083EA89FB89208346
:1014C000EE89FF89408121E030E0C9010A8C02C029
:1014D000880F991F0A94E2F7482B4083EE89FF8911
:1014E0004081C9010B8C02C0880F991F0A94E2F752
:1014F000482B4083EE89FF894081C9010C8C02C0D2
:10150000880F991F0A94E2F7482B4083EE89FF89E0
:1015100080810D8C02C0220F331F0A94E2F72095C0
:1015200028232083DF91CF911F910F91FF90EF909F
:10153000DF90BF90AF900895DC011C96ED91FC9177
:101540001D97E05CFF4F2191319180819181281B93
:10155000390B2F733070C9010895DC011C96ED9191
:10156000FC911D97E05CFF4F20813181E054F040F9
:10157000DF01AE5BBF4F8D919C9111972817390702
:1015800019F42FEF3FEF07C08D919C91E80FF91FE1
:101590008081282F30E0C9010895DC011C96ED916F
:1015A000FC911D97E05CFF4F20813181E054F040B9
:1015B000DF01AE5BBF4F8D919C91119728173907C2
:1015C00019F42FEF3FEF10C08D919C911197E80F08
:1015D000F91F20818D919C91119701968F739070C6
:1015E00011969C938E9330E0C9010895FC01868585
:1015F0009785DC01A05CBF4FFC01EE5BFF4F2D9196
:101600003C9111978081918128173907C1F708957E
:10161000CF93DF93EC01EE85FF85E05CFF4F2081E7
:101620003181E054F0402F5F3F4F2F733070DF0166
:10163000AE5BBF4F8D919C91119728173907D1F35D
:10164000E05CFF4F80819181E054F040E80FF91F8A
:101650006083EE85FF85E05CFF4F31832083EE8958
:10166000FF89208181E090E00D8C02C0880F991FD6
:101670000A94E2F7282B208381E090E0DF91CF915C
:1016800008951F93109224051092230528EE33E04D
:1016900040E050E020932505309326054093270530
:1016A0005093280563EE72E0709322056093210544
:1016B00081E093E090932E0580932D0585E493E0DF
:1016C0009093300580932F0585EC90E09093320540
:1016D0008093310584EC90E090933405809333053A
:1016E00080EC90E0909336058093350581EC90E096
:1016F000909338058093370586EC90E090933A05F7
:101700008093390514E010933B05B3E0B0933C059A
:10171000A7E0A0933D05F5E0F0933E05E1E0E093FE
:101720003F051092430510924205209344053093E3
:1017300045054093460550934705709341056093D6
:10174000400589E893E090934D0580934C058DEC1E
:1017500093E090934F0580934E058DEC90E090932D
:101760005105809350058CEC90E090935305809345
:10177000520588EC90E0909355058093540589ECD0
:1017800090E090935705809356058EEC90E09093EF
:1017900059058093580510935A05B0935B05A093A3
:1017A0005C05F0935D05E0935E0510926205109272
:1017B000610520936305309364054093650550935C
:1017C00066057093600560935F0581E194E09093F6
:1017D0006C0580936B0585E594E090936E0580938E
:1017E0006D0585ED90E09093700580936F0584ED15
:1017F00090E0909372058093710580ED90E0909356
:1018000074058093730581ED90E090937605809345
:10181000750586ED90E09093780580937705109399
:101820007905B0937A05A0937B05F0937C05E0934E
:101830007D051092810510928005209382053093DA
:101840008305409384055093850570937F056093CD
:101850007E0589E994E090938B0580938A058DED50
:1018600094E090938D0580938C0585E391E09093AF
:101870008F0580938E0584E391E09093910580938A
:10188000900580E391E0909393058093920581E326
:1018900091E0909395058093940586E391E0909371
:1018A00097058093960510939805B0939905A0939A
:1018B0009A05F0939B05E0939C051F910895CF92A4
:1018C000DF92EF92FF920F931F93CF93DF937C01F0
:1018D0006B018A01C0E0D0E00FC0D6016D916D01AF
:1018E000D701ED91FC910190F081E02DC701199590
:1018F000C80FD91F015010400115110571F7CE0115
:10190000DF91CF911F910F91FF90EF90DF90CF90DB
:101910000895EF92FF920F931F938C01DC01ED91DC
:10192000FC910190F081E02D6DE019957C01D801CA
:10193000ED91FC910190F081E02DC8016AE01995CC
:101940009C012E0D3F1DC9011F910F91FF90EF903B
:101950000895CF93DF93DB010D900020E9F71197F5
:10196000A61BB70BEC01E881F9810280F381E02D21
:10197000AD011995DF91CF9108954F925F927F92BB
:101980008F929F92AF92BF92CF92DF92EF92FF928F
:101990000F931F93DF93CF93CDB7DEB7A1970FB609
:1019A000F894DEBF0FBECDBF2C01742ECB012230C8
:1019B00008F42AE019A231E2C32ED12CCC0EDD1E90
:1019C000822E9924AA24BB24672D752FA50194018A
:1019D0000E94DB0D79018A01C801B701A5019401BC
:1019E0000E94BC0D472D461B0894C108D1084A30FF
:1019F00014F4405D01C0495CF6014083E114F10438
:101A00000105110521F07E2C5F2DC801DDCFC2013B
:101A1000B6010E94A90CA1960FB6F894DEBF0FBEC6
:101A2000CDBFCF91DF911F910F91FF90EF90DF908D
:101A3000CF90BF90AF909F908F907F905F904F908E
:101A40000895DC012115310541F4ED91FC910190DF
:101A5000F081E02D642F199508950E94BD0C089522
:101A6000EF92FF920F931F937C010E94210D8C0136
:101A7000C7010E94890C9C01200F311FC9011F91D1
:101A80000F91FF90EF900895CF92DF92EF92FF9227
:101A90000F931F93CF93DF93EC016A017B01211514
:101AA000310541F4E881F9810190F081E02D642F46
:101AB00019951FC02A303105D1F477FF17C0E8818E
:101AC000F9810190F081E02D6DE219958C01442798
:101AD0005527BA014C195D096E097F09CE012AE02C
:101AE0000E94BD0C9801280F391F04C02AE00E94F3
:101AF000BD0C9C01C901DF91CF911F910F91FF9007
:101B0000EF90DF90CF900895CF92DF92EF92FF9207
:101B10000F931F936C017B019A010027F7FC00953E
:101B2000102FB801A7010E94440D8C01C6010E942C
:101B3000890C080F191FC8011F910F91FF90EF909A
:101B4000DF90CF9008950E94A90C0895EF92FF9224
:101B50000F931F937C010E94A90C8C01C7010E9466
:101B6000890C080F191FC8011F910F91FF90EF906A
:101B70000895F8940C94030E629FD001739FF001B6
:101B8000829FE00DF11D649FE00DF11D929FF00D0D
:101B9000839FF00D749FF00D659FF00D9927729F44
:101BA000B00DE11DF91F639FB00DE11DF91FBD01CF
:101BB000CF0111240895A1E21A2EAA1BBB1BFD011F
:101BC0000DC0AA1FBB1FEE1FFF1FA217B307E4071C
:101BD000F50720F0A21BB30BE40BF50B661F771F74
:101BE000881F991F1A9469F7609570958095909554
:101BF0009B01AC01BD01CF010895EE0FFF1F0590C1
:0A1C0000F491E02D1994F894FFCF41
:101C0A0053746172740057616974466F7241636BF1
:101C1A005F31004C697374656E0057616974696E4F
:101C2A0067466F724B65795F310057616974466F19
:101C3A007241636B5F3200706C6561736520686521
:101C4A006C700057616974696E67466F724B65798B
:101C5A005F320020206C6F6769635F636865636B3E
:101C6A003A200057616974466F7241636B5F3300B3
:101C7A004461746145786368616E6765006D6F647D
:101C8A00653A2000707269766174655F6B65793AAE
:101C9A002000636B65793A2000536572766572207D
:101CAA00707269766174655F6B65793A2000736B4F
:101CBA0065793A2000436C69656E742070726976A2
:101CCA006174655F6B65793A2000546865207368B2
:101CDA0061726564206B65792069733A200001009E
:101CEA00000000080B5F0C9C0ACD0AAD0AF60A0038
:00000001FF
