:100000000C9473000C949F000C949F000C949F0020
:100010000C949F000C949F000C949F000C949F00E4
:100020000C949F000C949F000C949F000C949F00D4
:100030000C949F000C949F000C949F000C949F00C4
:100040000C949F000C949F000C949F000C949F00B4
:100050000C949F000C949F000C949F000C946402DD
:100060000C949F000C9467030C9447040C949F001D
:100070000C949F000C949F000C949F000C949F0084
:100080000C949F000C949F000C949F000C949F0074
:100090000C949F030C9486040C949F000C949F0076
:1000A0000C949F000C949F000C949F000C949F0054
:1000B0000C949F000C949F000C949F000C949F0044
:1000C0000C949F000C949F000C949F000C94D703F9
:1000D0000C94C5040C949F000C940F040C9404051C
:1000E0000C949F006E0611241FBECFEFD1E2DEBF3D
:1000F000CDBF00E00CBF12E0A0E0B2E0E2EAF2E126
:1001000000E00BBF02C007900D92A636B107D9F7E9
:1001100015E0A6E6B2E001C01D92AB30B107E1F7F1
:1001200010E0C6EED0E004C02297FE010E944B0909
:10013000C43ED107C9F70E9485010C94D6080C94DF
:1001400000002F923F924F925F926F927F928F9218
:100150009F92AF92BF92CF92DF92EF92FF920F9356
:100160001F93CF93DF9319012A0157016801A8015A
:1001700097010E9427093B014C0181E0E82EF12CF8
:10018000012D112DC0E0D0E081E090E00C2E02C0E6
:10019000880F991F0A94E2F7AA2797FDA095BA2F16
:1001A00082219321A421B5210097A105B10579F001
:1001B000B301C401A80197010E94E108A6019501BD
:1001C0000E942709AC01CB01DA017C018D01219647
:1001D000C132D10569F0B301C4019301A4010E94A9
:1001E000E108A60195010E9427093B014C01CCCFF3
:1001F000B701C801DF91CF911F910F91FF90EF9050
:10020000DF90CF90BF90AF909F908F907F906F9036
:100210005F904F903F902F900895EF92FF920F9331
:100220001F93DF93CF93CDB7DEB7C158D0400FB641
:10023000F894DEBF0FBECDBF8FE894E060E072E0BF
:100240000E94B50800E010E07E010894E11CF11C5A
:100250008FE894E00E94FA05BC018FEF6F3F7807AA
:10026000B9F36A30710581F06D30710569F0F701FD
:10027000E00FF11F60830F5F1F4F8FE894E00E9433
:10028000B6070038110524F3CE010196080F191F97
:10029000F80110820E94B808182F092F8FE894E007
:1002A0000E94BE07812F902FCF57DF4F0FB6F894D3
:1002B000DEBF0FBECDBFCF91DF911F910F91FF9099
:1002C000EF9008950F931F93CF93DF93C0E0D0E09A
:1002D00000E010E081E00E9430029C01217030704B
:1002E000C20FD31FCC0FDD1F62E370E080E090E00F
:1002F0000E94AC020F5F1F4F0031110559F7CE016C
:10030000DF91CF911F910F910895AF92BF92CF923D
:10031000DF92EF92FF920F931F930E9405030E94BA
:1003200062018C012BE48B309207C8F78FE894E0D0
:1003300040E855E260E070E00E9443055801CC249B
:10034000DD2466E070E080E090E0A6019501FBE02E
:10035000EF2EFBE4FF2E012D112D0E94A1007B0149
:100360008C018FE894E062E272E00E94B5088FE8A9
:1003700094E0B7014AE050E00E9496080E940D0107
:100380007C018FE894E061E372E00E94B5088FE899
:1003900094E0B7014AE050E00E9496080027F7FC7D
:1003A0000095102FC801B701A6019501EBE0EE2ED4
:1003B000EBE4FE2E012D112D0E94A1007B018C018A
:1003C0008FE894E060E472E00E94B5088FE894E062
:1003D000B7014AE050E00E9496088CEE94E040E8B5
:1003E00055E260E070E00E944305C70160E071E003
:1003F0000E941409F82E8CEE94E00E94FA052FEF6B
:100400008F3F9207C1F08F25682F772767FD709582
:100410006A30710519F06D30710549F48FE894E088
:100420006AE00E9435068FE894E06DE002C08FE834
:1004300094E00E9435068FE894E00E94FA058C0152
:100440008FEF0F3F1807B9F28FE894E0602F0E94FA
:1004500035066F2D60278CEE94E00E943506CBCFD9
:10046000382F863308F0365320917B00832F8695F2
:100470008695869590E08170907043E0880F991F73
:100480004A95E1F7277F282B20937B0037708091D6
:1004900054028295880F880F807C832B80937C0088
:1004A00080917A00806480937A0080917A0086FD42
:1004B000FCCF2091780040917900942F80E030E0CB
:1004C000282B392BC90108951F920F920FB60F9256
:1004D00011242F933F938F939F93AF93BF9380915A
:1004E0006A0290916B02A0916C02B0916D02309102
:1004F0006E020196A11DB11D232F2D5F2D3720F017
:100500002D570196A11DB11D20936E0280936A02A2
:1005100090936B02A0936C02B0936D02809166027F
:1005200090916702A0916802B09169020196A11DA5
:10053000B11D8093660290936702A0936802B09306
:100540006902BF91AF919F918F913F912F910F9031
:100550000FBE0F901F9018959B01AC017FB7F894C8
:100560008091660290916702A0916802B091690241
:1005700066B5A89B05C06F3F19F00196A11DB11D7E
:100580007FBFBA2FA92F982F8827860F911DA11DF5
:10059000B11D62E0880F991FAA1FBB1F6A95D1F792
:1005A000BC012DC0FFB7F89480916602909167025C
:1005B000A0916802B0916902E6B5A89B05C0EF3F23
:1005C00019F00196A11DB11DFFBFBA2FA92F982FB9
:1005D00088278E0F911DA11DB11DE2E0880F991F84
:1005E000AA1FBB1FEA95D1F7861B970B885E934025
:1005F000C8F2215030404040504068517C4F211596
:1006000031054105510571F60895789484B58260ED
:1006100084BD84B5816084BD85B5826085BD85B5A6
:10062000816085BDEEE6F0E0808181608083E1E855
:10063000F0E010828081826080838081816080838D
:10064000E0E8F0E0808181608083E1EBF0E0808190
:1006500084608083E0EBF0E0808181608083E1E969
:10066000F0E0808182608083808181608083E0E926
:10067000F0E0808181608083E1EAF0E08081826047
:100680008083808181608083E0EAF0E08081816006
:100690008083E1E2F1E080818260808380818160FB
:1006A0008083E0E2F1E0808181608083EAE7F0E02E
:1006B000808184608083808182608083808181608A
:1006C00080838081806880831092C10008951F928A
:1006D0000F920FB60F920BB60F9211242F933F93E8
:1006E0004F938F939F93EF93FF934091C600209178
:1006F000AF023091B0022F5F3F4F2F733070809167
:10070000B1029091B2022817390759F0E091AF0277
:10071000F091B002E159FD4F40833093B002209335
:10072000AF02FF91EF919F918F914F913F912F9148
:100730000F900BBE0F900FBE0F901F9018951F9239
:100740000F920FB60F920BB60F9211242F933F9377
:100750004F938F939F93EF93FF934091CE002091FF
:100760003703309138032F5F3F4F2F7330708091E4
:10077000390390913A032817390759F0E09137036C
:10078000F0913803E950FD4F4083309338032093B4
:100790003703FF91EF919F918F914F913F912F914F
:1007A0000F900BBE0F900FBE0F901F9018951F92C9
:1007B0000F920FB60F920BB60F9211242F933F9307
:1007C0004F938F939F93EF93FF934091D600209187
:1007D000BF033091C0032F5F3F4F2F733070809164
:1007E000C1039091C2032817390759F0E091BF0364
:1007F000F091C003E158FC4F40833093C003209335
:10080000BF03FF91EF919F918F914F913F912F9156
:100810000F900BBE0F900FBE0F901F9018951F9258
:100820000F920FB60F920BB60F9211242F933F9396
:100830004F938F939F93EF93FF93409136012091B5
:100840004704309148042F5F3F4F2F7330708091E1
:10085000490490914A042817390759F0E091470458
:10086000F0914804E95FFB4F4083309348042093A4
:100870004704FF91EF919F918F914F913F912F915D
:100880000F900BBE0F900FBE0F901F9018951F92E8
:100890000F920FB60F920BB60F9211242F933F9326
:1008A0008F939F93EF93FF932091F3023091F40283
:1008B0008091F5029091F6022817390731F4809162
:1008C000C1008F7D8093C10014C0E091F502F091CA
:1008D000F602ED54FD4F20818091F5029091F602D1
:1008E00001968F7390709093F6028093F502209397
:1008F000C600FF91EF919F918F913F912F910F90A3
:100900000BBE0F900FBE0F901F9018951F920F9265
:100910000FB60F920BB60F9211242F933F938F9324
:100920009F93EF93FF9320917B0330917C03809101
:100930007D0390917E032817390731F48091C90017
:100940008F7D8093C90014C0E0917D03F0917E03F8
:10095000E55CFC4F208180917D0390917E030196A0
:100960008F73907090937E0380937D032093CE00CD
:10097000FF91EF919F918F913F912F910F900BBE1F
:100980000F900FBE0F901F9018951F920F920FB6E9
:100990000F920BB60F9211242F933F938F939F9337
:1009A000EF93FF9320910304309104048091050498
:1009B000909106042817390731F48091D1008F7D7A
:1009C0008093D10014C0E0910504F0910604ED532A
:1009D000FC4F2081809105049091060401968F734D
:1009E000907090930604809305042093D600FF91A5
:1009F000EF919F918F913F912F910F900BBE0F9090
:100A00000FBE0F901F9018951F920F920FB60F9266
:100A10000BB60F9211242F933F938F939F93EF93D5
:100A2000FF9320918B0430918C0480918D049091E0
:100A30008E042817390731F4809131018F7D80931E
:100A4000310114C0E0918D04F0918E04E55BFB4F01
:100A5000208180918D0490918E0401968F73907007
:100A600090938E0480938D0420933601FF91EF9133
:100A70009F918F913F912F910F900BBE0F900FBEC2
:100A80000F901F901895AF92BF92DF92EF92FF9256
:100A90000F931F93CF93DF93EC017A018B01DD2439
:100AA000403081EE580780E0680780E0780711F059
:100AB000DD24D39491E0A92EB12CEC89FD89DD20B1
:100AC00069F0C5010E8C02C0880F991F0A94E2F7E5
:100AD000808360E079E08DE390E005C0108260E8FB
:100AE00074E88EE190E0A80197010E942709215047
:100AF000304040405040569547953795279580E1C6
:100B00002030380720F0DD2011F0DD24D6CFE88931
:100B1000F9893083EA89FB892083EE89FF89408146
:100B200021E030E0C9010A8C02C0880F991F0A94A5
:100B3000E2F7482B4083EE89FF894081C9010B8C85
:100B400002C0880F991F0A94E2F7482B4083EE8970
:100B5000FF894081C9010C8C02C0880F991F0A943B
:100B6000E2F7482B4083EE89FF8980810D8C02C01B
:100B7000220F331F0A94E2F7209528232083DF9168
:100B8000CF911F910F91FF90EF90DF90BF90AF90AA
:100B90000895DC011C96ED91FC911D97E05CFF4FE0
:100BA0002191319180819181281B390B2F733070F5
:100BB000C9010895DC011C96ED91FC911D97E05C44
:100BC000FF4F20813181E054F040DF01AE5BBF4F29
:100BD0008D919C9111972817390719F42FEF3FEF4A
:100BE00007C08D919C91E80FF91F8081282F30E07C
:100BF000C9010895DC011C96ED91FC911D97E05C04
:100C0000FF4F20813181E054F040DF01AE5BBF4FE8
:100C10008D919C9111972817390719F42FEF3FEF09
:100C200010C08D919C911197E80FF91F20818D9133
:100C30009C91119701968F73907011969C938E934F
:100C400030E0C9010895FC0186859785DC01A05C30
:100C5000BF4FFC01EE5BFF4F2D913C9111978081BE
:100C6000918128173907C1F70895CF93DF93EC01DD
:100C7000EE85FF85E05CFF4F20813181E054F0403C
:100C80002F5F3F4F2F733070DF01AE5BBF4F8D91F1
:100C90009C91119728173907D1F3E05CFF4F8081B1
:100CA0009181E054F040E80FF91F6083EE85FF85E5
:100CB000E05CFF4F31832083EE89FF89208181E052
:100CC00090E00D8C02C0880F991F0A94E2F7282B40
:100CD000208381E090E0DF91CF9108951F931092DF
:100CE00092041092910428EE33E040E050E020930B
:100CF000930430939404409395045093960469E5CB
:100D000072E07093900460938F048FE692E090936A
:100D10009C0480939B0483EB92E090939E048093C9
:100D20009D0485EC90E09093A00480939F0484EC54
:100D300090E09093A2048093A10480EC90E09093C3
:100D4000A4048093A30481EC90E09093A604809384
:100D5000A50486EC90E09093A8048093A70414E087
:100D60001093A904B3E0B093AA04A7E0A093AB0446
:100D7000F5E0F093AC04E1E0E093AD041092B1042F
:100D80001092B0042093B2043093B3044093B4049F
:100D90005093B5047093AF046093AE0487EF92E074
:100DA0009093BB048093BA048BE393E09093BD04CB
:100DB0008093BC048DEC90E09093BF048093BE04BC
:100DC0008CEC90E09093C1048093C00488EC90E098
:100DD0009093C3048093C20489EC90E09093C5047F
:100DE0008093C4048EEC90E09093C7048093C60473
:100DF0001093C804B093C904A093CA04F093CB0421
:100E0000E093CC041092D0041092CF042093D1042C
:100E10003093D2044093D3045093D4047093CE04FF
:100E20006093CD048FE793E09093DA048093D90424
:100E300083EC93E09093DC048093DB0485ED90E0F9
:100E40009093DE048093DD0484ED90E09093E004C1
:100E50008093DF0480ED90E09093E2048093E104BE
:100E600081ED90E09093E4048093E30486ED90E0BC
:100E70009093E6048093E5041093E704B093E804AC
:100E8000A093E904F093EA04E093EB041092EF04DA
:100E90001092EE042093F0043093F1044093F20496
:100EA0005093F3047093ED046093EC0487E094E0B6
:100EB0009093F9048093F8048BE494E09093FB04FE
:100EC0008093FA0485E391E09093FD048093FC0401
:100ED00084E391E09093FF048093FE0480E391E02B
:100EE000909301058093000581E391E090930305C1
:100EF0008093020586E391E09093050580930405B5
:100F000010930605B0930705A0930805F093090513
:100F1000E0930A051F910895CF92DF92EF92FF921E
:100F20000F931F93CF93DF937C016B018A01C0E085
:100F3000D0E00FC0D6016D916D01D701ED91FC910C
:100F40000190F081E02DC7011995C80FD91F0150FC
:100F500010400115110571F7CE01DF91CF911F915E
:100F60000F91FF90EF90DF90CF900895DC01ED910D
:100F7000FC910190F081E02D19950895EF92FF9278
:100F80000F931F938C01DC01ED91FC910190F08196
:100F9000E02D6DE019957C01D801ED91FC91019057
:100FA000F081E02DC8016AE019959C012E0D3F1DCE
:100FB000C9011F910F91FF90EF900895CF93DF9398
:100FC000DB010D900020E9F71197A61BB70BEC0190
:100FD000E881F9810280F381E02DAD011995DF915F
:100FE000CF9108954F925F927F928F929F92AF928E
:100FF000BF92CF92DF92EF92FF920F931F93DF93F6
:10100000CF93CDB7DEB7A1970FB6F894DEBF0FBE72
:10101000CDBF2C01742ECB01223008F42AE019A296
:1010200031E2C32ED12CCC0EDD1E822E9924AA24AF
:10103000BB24672D752FA50194010E942709790112
:101040008A01C801B701A50194010E94E108472D5A
:10105000461B0894C108D1084A3014F4405D01C011
:10106000495CF6014083E114F1040105110521F00A
:101070007E2C5F2DC801DDCFC201B6010E94DE07C4
:10108000A1960FB6F894DEBF0FBECDBFCF91DF9112
:101090001F910F91FF90EF90DF90CF90BF90AF9096
:1010A0009F908F907F905F904F900895CF92DF92A6
:1010B000EF92FF920F931F93CF93DF93EC016A019E
:1010C0007B012115310541F4E881F9810190F0811E
:1010D000E02D642F19951FC02A303105D1F477FF18
:1010E00017C0E881F9810190F081E02D6DE219953A
:1010F0008C0144275527BA014C195D096E097F09F7
:10110000CE012AE00E94F2079801280F391F04C07F
:101110002AE00E94F2079C01C901DF91CF911F9143
:101120000F91FF90EF90DF90CF900895CF92DF92D4
:10113000EF92FF920F931F936C017B019A0100279E
:10114000F7FC0095102FB801A7010E9456088C01EA
:10115000C6010E94BE07080F191FC8011F910F91F9
:10116000FF90EF90DF90CF9008950E94DE070895E2
:10117000FC0188279927E89421912032E9F329304E
:1011800010F02E30C8F32B3241F02D3239F4689430
:1011900004C00E94D908820F911D219120532A304A
:1011A000C0F31EF4909581959F4F0895F8940C9488
:1011B0004F097AE0979F902D879F802D910D1124E4
:1011C0000895629FD001739FF001829FE00DF11D91
:1011D000649FE00DF11D929FF00D839FF00D749FB1
:1011E000F00D659FF00D9927729FB00DE11DF91F5D
:1011F000639FB00DE11DF91FBD01CF0111240895BA
:10120000AA1BBB1B51E107C0AA1FBB1FA617B7072C
:1012100010F0A61BB70B881F991F5A95A9F7809548
:101220009095BC01CD01089597FB092E07260AD0A1
:1012300077FD04D0E5DF06D000201AF470956195A3
:101240007F4F0895F6F7909581959F4F0895A1E2FD
:101250001A2EAA1BBB1BFD010DC0AA1FBB1FEE1F30
:10126000FF1FA217B307E407F50720F0A21BB30B7B
:10127000E40BF50B661F771F881F991F1A9469F7F7
:1012800060957095809590959B01AC01BD01CF0153
:101290000895EE0FFF1F0590F491E02D1994F89436
:0212A000FFCF7E
:1012A200456E74657220796F757220706172746E0A
:1012B20065722773207075626C6963206B65793A79
:1012C20020005075626C6963206B657920413A2079
:1012D200005075626C6963206B657920423A200088
:1012E20054686520736861726564206B6579206952
:1012F200733A2000010000000035068C07C905FA88
:0613020005DA05230600D8
:00000001FF
