:100000000C9473000C949F000C949F000C949F0020
:100010000C949F000C949F000C949F000C949F00E4
:100020000C949F000C949F000C949F000C949F00D4
:100030000C949F000C949F000C949F000C949F00C4
:100040000C949F000C949F000C949F000C949F00B4
:100050000C949F000C949F000C949F000C94E6025B
:100060000C949F000C94E9030C94C9040C949F0019
:100070000C949F000C949F000C949F000C949F0084
:100080000C949F000C949F000C949F000C949F0074
:100090000C9421040C9408050C949F000C949F0070
:1000A0000C949F000C949F000C949F000C949F0054
:1000B0000C949F000C949F000C949F000C949F0044
:1000C0000C949F000C949F000C949F000C94590476
:1000D0000C9447050C949F000C9491040C94860595
:1000E0000C949F00F00611241FBECFEFD1E2DEBFBB
:1000F000CDBF00E00CBF12E0A0E0B2E0EEEFF3E114
:1001000000E00BBF02C007900D92AE3AB107D9F7DD
:1001100015E0AEEAB2E001C01D92A335B107E1F7E8
:1001200010E0C6EED0E004C02297FE010E94F9095B
:10013000C43ED107C9F70E94DB010C9484090C94DA
:1001400000002F923F924F925F926F927F928F9218
:100150009F92AF92BF92CF92DF92EF92FF920F9356
:100160001F93CF93DF9319012A0157016801A8015A
:1001700097010E94D5093B014C0181E0E82EF12C4A
:10018000012D112DC0E0D0E081E090E00C2E02C0E6
:10019000880F991F0A94E2F7AA2797FDA095BA2F16
:1001A00082219321A421B5210097A105B10579F001
:1001B000B301C401A80197010E948F09A60195010E
:1001C0000E94D509AC01CB01DA017C018D01219699
:1001D000C132D10569F0B301C4019301A4010E94A9
:1001E0008F09A60195010E94D5093B014C01CCCF96
:1001F000B701C801DF91CF911F910F91FF90EF9050
:10020000DF90CF90BF90AF909F908F907F906F9036
:100210005F904F903F902F900895CF92DF92EF9292
:10022000FF920F931F938C016B0197EDE92E94E0E1
:10023000F92EC70160E072E00E946309C701602FD8
:100240000E94B706C60160E071E00E94C20908275B
:100250001927C7010E944008C70169E072E00E94A7
:100260006309C701602F0E94B706C8011F910F9153
:10027000FF90EF90DF90CF900895CF92DF92EF92B2
:10028000FF920F931F937C016B0107ED14E0C801EF
:1002900061E172E00E946309C8016E2D0E94B706F9
:1002A000C8010E944008C60160E071E00E94C209D6
:1002B0009C012E253F25C9011F910F91FF90EF90C2
:1002C000DF90CF900895EF92FF920F931F93DF93EB
:1002D000CF93CDB7DEB7C158D0400FB6F894DEBF8C
:1002E0000FBECDBF87ED94E065E272E00E94630926
:1002F00000E010E07E010894E11CF11C87ED94E021
:100300000E947C06BC018FEF6F3F7807B9F36A301B
:10031000710581F06D30710569F0F701E00FF11F93
:1003200060830F5F1F4F87ED94E00E94380800380C
:10033000110524F3CE010196080F191FF801108250
:100340000E946609182F092F87ED94E00E9440084B
:10035000812F902FCF57DF4F0FB6F894DEBF0FBE1F
:10036000CDBFCF91DF911F910F91FF90EF90089536
:100370000F931F93CF93DF93C0E0D0E000E010E035
:1003800081E00E94B2029C0121703070C20FD31F25
:10039000CC0FDD1F62E370E080E090E00E942E034E
:1003A0000F5F1F4F0031110559F7CE01DF91CF913B
:1003B0001F910F910895AF92BF92CF92DF92EF926B
:1003C000FF920F931F93CF93DF930E9487030E94A6
:1003D000B801EC012BE48B309207C8F787ED94E06D
:1003E00040E855E260E070E00E94C50587ED94E0CA
:1003F00067E472E00E94630987ED94E0BE014AE081
:1004000050E00E94E7085E01CC24DD2466E070E045
:1004100080E090E0A6019501FBE0EF2EFBE4FF2ECB
:10042000012D112D0E94A1007B018C0187ED94E02C
:1004300065E572E00E94630987ED94E0B7014AE048
:1004400050E00E9444090E9463017C0187ED94E022
:1004500064E672E00E94630987ED94E0B7014AE028
:1004600050E00E9444090027F7FC0095102FC801B6
:10047000B701A6019501EBE0EE2EEBE4FE2E012D77
:10048000112D0E94A1007B018C0187ED94E063E7B0
:1004900072E00E94630987ED94E0B7014AE050E002
:1004A0000E94440984E395E040E855E260E070E092
:1004B0000E94C50584E395E00E947C062FEF8F3FE4
:1004C0009207E9F0BE010E940D01BC018A3091053E
:1004D00019F08D30910559F487ED94E06AE00E949F
:1004E000B70687ED94E06DE00E94B70608C087ED7F
:1004F00094E00E94B70687ED94E00E94400887EDE3
:1005000094E00E947C067C018FEFE8168FEFF806DE
:1005100089F2C701BE010E943D01182F87ED94E0CA
:100520000E94400887ED94E060E872E00E94630951
:1005300087ED94E06E2D0E94B70687ED94E00E944F
:10054000400887ED94E06DE872E00E94630987ED52
:1005500094E0612F0E94B70684E395E0612F0E942A
:10056000B706A8CF382F863308F0365320917B008A
:10057000832F86958695869590E08170907043E0F4
:10058000880F991F4A95E1F7277F282B20937B003E
:10059000377080919C028295880F880F807C832B16
:1005A00080937C0080917A00806480937A008091AF
:1005B0007A0086FDFCCF2091780040917900942F3D
:1005C00080E030E0282B392BC90108951F920F924B
:1005D0000FB60F9211242F933F938F939F93AF9356
:1005E000BF938091B2029091B302A091B402B091F6
:1005F000B5023091B6020196A11DB11D232F2D5FCA
:100600002D3720F02D570196A11DB11D2093B60264
:100610008093B2029093B302A093B402B093B50258
:100620008091AE029091AF02A091B002B091B10260
:100630000196A11DB11D8093AE029093AF02A093CD
:10064000B002B093B102BF91AF919F918F913F9152
:100650002F910F900FBE0F901F9018959B01AC012A
:100660007FB7F8948091AE029091AF02A091B00252
:10067000B091B10266B5A89B05C06F3F19F0019615
:10068000A11DB11D7FBFBA2FA92F982F8827860FD4
:10069000911DA11DB11D62E0880F991FAA1FBB1FEC
:1006A0006A95D1F7BC012DC0FFB7F8948091AE02D6
:1006B0009091AF02A091B002B091B102E6B5A89BB3
:1006C00005C0EF3F19F00196A11DB11DFFBFBA2F64
:1006D000A92F982F88278E0F911DA11DB11DE2E033
:1006E000880F991FAA1FBB1FEA95D1F7861B970B8E
:1006F000885E9340C8F221503040404050406851DD
:100700007C4F211531054105510571F60895789406
:1007100084B5826084BD84B5816084BD85B5826006
:1007200085BD85B5816085BDEEE6F0E080818160A4
:100730008083E1E8F0E010828081826080838081A4
:1007400081608083E0E8F0E0808181608083E1EB7C
:10075000F0E0808184608083E0EBF0E08081816064
:100760008083E1E9F0E08081826080838081816024
:100770008083E0E9F0E0808181608083E1EAF0E05D
:10078000808182608083808181608083E0EAF0E004
:10079000808181608083E1E2F1E0808182608083FA
:1007A000808181608083E0E2F1E0808181608083EC
:1007B000EAE7F0E0808184608083808182608083CA
:1007C0008081816080838081806880831092C100F5
:1007D00008951F920F920FB60F920BB60F9211242D
:1007E0002F933F934F938F939F93EF93FF9340915A
:1007F000C6002091F7023091F8022F5F3F4F2F7310
:1008000030708091F9029091FA022817390759F057
:10081000E091F702F091F802E954FD4F40833093E4
:10082000F8022093F702FF91EF919F918F914F91E2
:100830003F912F910F900BBE0F900FBE0F901F9006
:1008400018951F920F920FB60F920BB60F921124AC
:100850002F933F934F938F939F93EF93FF934091E9
:10086000CE0020917F03309180032F5F3F4F2F7385
:10087000307080918103909182032817390759F0D5
:10088000E0917F03F0918003E15CFC4F4083309363
:10089000800320937F03FF91EF919F918F914F9160
:1008A0003F912F910F900BBE0F900FBE0F901F9096
:1008B00018951F920F920FB60F920BB60F9211243C
:1008C0002F933F934F938F939F93EF93FF93409179
:1008D000D60020910704309108042F5F3F4F2F73FB
:1008E00030708091090490910A042817390759F053
:1008F000E0910704F0910804E953FC4F40833093E2
:10090000080420930704FF91EF919F918F914F91DD
:100910003F912F910F900BBE0F900FBE0F901F9025
:1009200018951F920F920FB60F920BB60F921124CB
:100930002F933F934F938F939F93EF93FF93409108
:10094000360120918F04309190042F5F3F4F2F7319
:10095000307080919104909192042817390759F0D2
:10096000E0918F04F0919004E15BFB4F4083309362
:10097000900420938F04FF91EF919F918F914F915D
:100980003F912F910F900BBE0F900FBE0F901F90B5
:1009900018951F920F920FB60F920BB60F9211245B
:1009A0002F933F938F939F93EF93FF9320913B035C
:1009B00030913C0380913D0390913E032817390705
:1009C00031F48091C1008F7D8093C10014C0E0910B
:1009D0003D03F0913E03E550FD4F208180913D03A2
:1009E00090913E0301968F73907090933E03809395
:1009F0003D032093C600FF91EF919F918F913F910E
:100A00002F910F900BBE0F900FBE0F901F90189557
:100A10001F920F920FB60F920BB60F9211242F93C5
:100A20003F938F939F93EF93FF932091C303309154
:100A3000C4038091C5039091C6032817390731F488
:100A40008091C9008F7D8093C90014C0E091C503D7
:100A5000F091C603ED57FC4F20818091C503909122
:100A6000C60301968F7390709093C6038093C5035D
:100A70002093CE00FF91EF919F918F913F912F9105
:100A80000F900BBE0F900FBE0F901F9018951F92E6
:100A90000F920FB60F920BB60F9211242F933F9324
:100AA0008F939F93EF93FF9320914B0430914C04CD
:100AB00080914D0490914E042817390731F48091AC
:100AC000D1008F7D8093D10014C0E0914D04F0914E
:100AD0004E04E55FFB4F208180914D0490914E04C0
:100AE00001968F73907090934E0480934D042093E1
:100AF000D600FF91EF919F918F913F912F910F9091
:100B00000BBE0F900FBE0F901F9018951F920F9263
:100B10000FB60F920BB60F9211242F933F938F9322
:100B20009F93EF93FF932091D3043091D40480914D
:100B3000D5049091D6042817390731F480913101FA
:100B40008F7D8093310114C0E091D504F091D604DB
:100B5000ED56FB4F20818091D5049091D6040196EB
:100B60008F7390709093D6048093D50420933601B0
:100B7000FF91EF919F918F913F912F910F900BBE1D
:100B80000F900FBE0F901F901895AF92BF92DF92FB
:100B9000EF92FF920F931F93CF93DF93EC017A01B3
:100BA0008B01DD24403081EE580780E0680780E04B
:100BB000780711F0DD24D39491E0A92EB12CEC89B3
:100BC000FD89DD2069F0C5010E8C02C0880F991FD8
:100BD0000A94E2F7808360E079E08DE390E005C05D
:100BE000108260E874E88EE190E0A80197010E940D
:100BF000D509215030404040504056954795379593
:100C0000279580E12030380720F0DD2011F0DD2429
:100C1000D6CFE889F9893083EA89FB892083EE8978
:100C2000FF89408121E030E0C9010A8C02C0880FB1
:100C3000991F0A94E2F7482B4083EE89FF8940818F
:100C4000C9010B8C02C0880F991F0A94E2F7482B48
:100C50004083EE89FF894081C9010C8C02C0880F56
:100C6000991F0A94E2F7482B4083EE89FF8980811F
:100C70000D8C02C0220F331F0A94E2F7209528231F
:100C80002083DF91CF911F910F91FF90EF90DF9024
:100C9000BF90AF900895DC011C96ED91FC911D97DB
:100CA000E05CFF4F2191319180819181281B390BAC
:100CB0002F733070C9010895DC011C96ED91FC91F1
:100CC0001D97E05CFF4F20813181E054F040DF014F
:100CD000AE5BBF4F8D919C9111972817390719F47E
:100CE0002FEF3FEF07C08D919C91E80FF91F808196
:100CF000282F30E0C9010895DC011C96ED91FC918C
:100D00001D97E05CFF4F20813181E054F040DF010E
:100D1000AE5BBF4F8D919C9111972817390719F43D
:100D20002FEF3FEF10C08D919C911197E80FF91FA5
:100D300020818D919C91119701968F7390701196DF
:100D40009C938E9330E0C9010895FC0186859785B8
:100D5000DC01A05CBF4FFC01EE5BFF4F2D913C918D
:100D600011978081918128173907C1F70895CF9392
:100D7000DF93EC01EE85FF85E05CFF4F2081318140
:100D8000E054F0402F5F3F4F2F733070DF01AE5BB8
:100D9000BF4F8D919C91119728173907D1F3E05CD3
:100DA000FF4F80819181E054F040E80FF91F60838C
:100DB000EE85FF85E05CFF4F31832083EE89FF895C
:100DC000208181E090E00D8C02C0880F991F0A9469
:100DD000E2F7282B208381E090E0DF91CF91089506
:100DE0001F931092DA041092D90428EE33E040E009
:100DF00050E02093DB043093DC044093DD045093F7
:100E0000DE0461EA72E07093D8046093D70487EB44
:100E100092E09093E4048093E3048BEF92E090934C
:100E2000E6048093E50485EC90E09093E8048093D9
:100E3000E70484EC90E09093EA048093E90480EC6A
:100E400090E09093EC048093EB0481EC90E090931D
:100E5000EE048093ED0486EC90E09093F004809390
:100E6000EF0414E01093F104B3E0B093F204A7E0B0
:100E7000A093F304F5E0F093F404E1E0E093F504CB
:100E80001092F9041092F8042093FA043093FB04B2
:100E90004093FC045093FD047093F7046093F604B0
:100EA0008FE393E0909303058093020583E893E03A
:100EB00090930505809304058DEC90E090930705D1
:100EC000809306058CEC90E09093090580930805CB
:100ED00088EC90E090930B0580930A0589EC90E0F4
:100EE00090930D0580930C058EEC90E090930F0588
:100EF00080930E0510931005B0931105A093120571
:100F0000F0931305E093140510921805109217053D
:100F10002093190530931A0540931B0550931C0527
:100F2000709316056093150587EC93E09093220566
:100F3000809321058BE094E0909324058093230512
:100F400085ED90E0909326058093250584ED90E053
:100F5000909328058093270580ED90E090932A05D3
:100F60008093290581ED90E090932C0580932B05CB
:100F700086ED90E090932E0580932D0510932F051C
:100F8000B0933005A0933105F0933205E09333051B
:100F900010923705109236052093380530933905A5
:100FA00040933A0550933B057093350560933405A3
:100FB0008FE494E0909341058093400583E994E0A9
:100FC000909343058093420585E391E09093450516
:100FD0008093440584E391E0909347058093460510
:100FE00080E391E0909349058093480581E391E087
:100FF00090934B0580934A0586E391E090934D05CD
:1010000080934C0510934E05B0934F05A093500567
:10101000F0935105E09352051F910895CF92DF920E
:10102000EF92FF920F931F93CF93DF937C016B019D
:101030008A01C0E0D0E00FC0D6016D916D01D701EB
:10104000ED91FC910190F081E02DC7011995C80F39
:10105000D91F015010400115110571F7CE01DF9124
:10106000CF911F910F91FF90EF90DF90CF90089557
:10107000DC01ED91FC910190F081E02D199508952E
:10108000EF92FF920F931F938C01DC01ED91FC9185
:101090000190F081E02D6DE019957C01D801ED9172
:1010A000FC910190F081E02DC8016AE019959C0146
:1010B0002E0D3F1DC9011F910F91FF90EF900895D4
:1010C000CF93DF93DB010D900020E9F71197A61B6A
:1010D000B70BEC01E881F9810280F381E02DAD01CD
:1010E0001995DF91CF9108954F925F927F928F92E1
:1010F0009F92AF92BF92CF92DF92EF92FF920F93A7
:101100001F93DF93CF93CDB7DEB7A1970FB6F894B7
:10111000DEBF0FBECDBF2C01742ECB01223008F4F0
:101120002AE019A231E2C32ED12CCC0EDD1E822E74
:101130009924AA24BB24672D752FA50194010E9430
:10114000D50979018A01C801B701A50194010E945E
:101150008F09472D461B0894C108D1084A3014F462
:10116000405D01C0495CF6014083E114F1040105D2
:10117000110521F07E2C5F2DC801DDCFC201B60123
:101180000E946008A1960FB6F894DEBF0FBECDBFD7
:10119000CF91DF911F910F91FF90EF90DF90CF9053
:1011A000BF90AF909F908F907F905F904F900895E9
:1011B000DC012115310541F4ED91FC910190F081A4
:1011C000E02D642F199508950E9474080895CF9218
:1011D000DF92EF92FF920F931F936C017B019A01B4
:1011E00000E010E0B801A7010E94D8088C01C601F8
:1011F0000E944008080F191FC8011F910F91FF900E
:10120000EF90DF90CF900895CF92DF92EF92FF9210
:101210000F931F93CF93DF93EC016A017B0121159C
:10122000310541F4E881F9810190F081E02D642FCE
:1012300019951FC02A303105D1F477FF17C0E88116
:10124000F9810190F081E02D6DE219958C01442720
:101250005527BA014C195D096E097F09CE012AE0B4
:101260000E9474089801280F391F04C02AE00E94C8
:1012700074089C01C901DF91CF911F910F91FF90DC
:10128000EF90DF90CF900895CF92DF92EF92FF9290
:101290000F931F936C017B019A010027F7FC0095C7
:1012A000102FB801A7010E9404098C01C6010E94F9
:1012B0004008080F191FC8011F910F91FF90EF9070
:1012C000DF90CF9008950E9460080895FC01882760
:1012D0009927E89421912032E9F3293010F02E303B
:1012E000C8F32B3241F02D3239F4689404C00E94C7
:1012F0008709820F911D219120532A30C0F31EF4DB
:10130000909581959F4F0895F8940C94FD097AE08B
:10131000979F902D879F802D910D11240895629F96
:10132000D001739FF001829FE00DF11D649FE00DDD
:10133000F11D929FF00D839FF00D749FF00D659F3E
:10134000F00D9927729FB00DE11DF91F639FB00D3D
:10135000E11DF91FBD01CF0111240895AA1BBB1B7C
:1013600051E107C0AA1FBB1FA617B70710F0A61BA5
:10137000B70B881F991F5A95A9F780959095BC01C6
:10138000CD01089597FB092E07260AD077FD04D0DA
:10139000E5DF06D000201AF4709561957F4F08951F
:1013A000F6F7909581959F4F0895A1E21A2EAA1BFA
:1013B000BB1BFD010DC0AA1FBB1FEE1FFF1FA21705
:1013C000B307E407F50720F0A21BB30BE40BF50B02
:1013D000661F771F881F991F1A9469F7609570958B
:1013E000809590959B01AC01BD01CF010895EE0F52
:0E13F000FF1F0590F491E02D1994F894FFCFA3
:1013FE006265666F72653A200061667465723A20A6
:10140E00004265666F726520656E637279707469ED
:10141E006F6E3A2000456E74657220796F7572207A
:10142E00706172746E65722773207075626C696379
:10143E00206B65793A2000707269766174655F6B16
:10144E0065793A20007075626C69635F6B65795FD0
:10145E00413A20007075626C69635F6B65795F421B
:10146E003A20007368617265645F6B65793A20009B
:10147E006D795F50435F627974653A2000627974CA
:10148E00655F746F5F73656E643A20000100000043
:0E149E0000B7060E084B067C065C06A506008D
:00000001FF
