:100000000C9473000C949F000C949F000C949F0020
:100010000C949F000C949F000C949F000C949F00E4
:100020000C949F000C949F000C949F000C949F00D4
:100030000C949F000C949F000C949F000C949F00C4
:100040000C949F000C949F000C949F000C949F00B4
:100050000C949F000C949F000C949F000C948402BD
:100060000C949F000C9487030C9467040C949F00DD
:100070000C949F000C949F000C949F000C949F0084
:100080000C949F000C949F000C949F000C949F0074
:100090000C94BF030C94A6040C949F000C949F0036
:1000A0000C949F000C949F000C949F000C949F0054
:1000B0000C949F000C949F000C949F000C949F0044
:1000C0000C949F000C949F000C949F000C94F703D9
:1000D0000C94E5040C949F000C942F040C942405BC
:1000E0000C949F008E0611241FBECFEFD1E2DEBF1D
:1000F000CDBF00E00CBF12E0A0E0B2E0E2E1F3E12E
:1001000000E00BBF02C007900D92A836B107D9F7E7
:1001100015E0A8E6B2E001C01D92AD30B107E1F7ED
:1001200010E0C6EED0E004C02297FE010E948309D1
:10013000C43ED107C9F70E9485010C9435090C947F
:1001400000002F923F924F925F926F927F928F9218
:100150009F92AF92BF92CF92DF92EF92FF920F9356
:100160001F93CF93DF9319012A0157016801A8015A
:1001700097010E945F093B014C0181E0E82EF12CC0
:10018000012D112DC0E0D0E081E090E00C2E02C0E6
:10019000880F991F0A94E2F7AA2797FDA095BA2F16
:1001A00082219321A421B5210097A105B10579F001
:1001B000B301C401A80197010E944009A60195015D
:1001C0000E945F09AC01CB01DA017C018D0121960F
:1001D000C132D10569F0B301C4019301A4010E94A9
:1001E0004009A60195010E945F093B014C01CCCF5B
:1001F000B701C801DF91CF911F910F91FF90EF9050
:10020000DF90CF90BF90AF909F908F907F906F9036
:100210005F904F903F902F900895EF92FF920F9331
:100220001F93DF93CF93CDB7DEB7C158D0400FB641
:10023000F894DEBF0FBECDBF81E994E060E072E0CC
:100240000E94140900E010E07E010894E11CF11CFA
:1002500081E994E00E941A06BC018FEF6F3F780796
:10026000B9F36A30710581F06D30710569F0F701FD
:10027000E00FF11F60830F5F1F4F81E994E00E9440
:10028000D6070038110524F3CE010196080F191F77
:10029000F80110820E941709182F092F81E994E0B4
:1002A0000E94DE07812F902FCF57DF4F0FB6F894B3
:1002B000DEBF0FBECDBFCF91DF911F910F91FF9099
:1002C000EF9008950F931F93CF93DF93C0E0D0E09A
:1002D00000E010E081E00E9450029C01217030702B
:1002E000C20FD31FCC0FDD1F62E370E080E090E00F
:1002F0000E94CC020F5F1F4F0031110559F7CE014C
:10030000DF91CF911F910F910895AF92BF92CF923D
:10031000DF92EF92FF920F931F93CF93DF930E9490
:1003200025030E946201EC018BE4CB30D807C8F7AB
:1003300081E994E040E855E260E070E00E946305E6
:1003400081E994E062E272E00E94140981E994E09C
:10035000BE014AE050E00E9485085E01CC24DD2405
:1003600066E070E080E090E0A6019501FBE0EF2EF2
:10037000FBE4FF2E012D112D0E94A1007B018C01B9
:1003800081E994E060E372E00E94140981E994E05D
:10039000B7014AE050E00E94F5080E940D017C017F
:1003A00081E994E06FE372E00E94140981E994E02E
:1003B000B7014AE050E00E94F5080027F7FC0095DD
:1003C000102FC801B701A6019501EBE0EE2EEBE47A
:1003D000FE2E012D112D0E94A1008EEE94E040E82A
:1003E00055E260E070E00E9463058EEE94E00E94AA
:1003F0001A068C018FEF0F3F1807A1F181E994E0F5
:10040000B8014AE050E00E94E20881E994E06EE41D
:1004100072E00E9414090C271D270A30110519F0FB
:100420000D30110559F481E994E06AE00E94550607
:1004300081E994E06DE00E9455060FC081E994E0E7
:1004400060E572E00E94140981E994E0602F0E9447
:10045000550681E994E00E94DE0781E994E0602F6F
:100460000E94550681E994E00E941A06BC018FEFB4
:100470006F3F780709F4B9CF8B010C271D2781E95D
:1004800094E00E945506B8016C277D2781E994E02D
:100490000E9455068EEE94E0602F0E945506A5CF6F
:1004A000382F863308F0365320917B00832F8695B2
:1004B0008695869590E08170907043E0880F991F33
:1004C0004A95E1F7277F282B20937B003770809196
:1004D00057028295880F880F807C832B80937C0045
:1004E00080917A00806480937A0080917A0086FD02
:1004F000FCCF2091780040917900942F80E030E08B
:10050000282B392BC90108951F920F920FB60F9215
:1005100011242F933F938F939F93AF93BF93809119
:100520006C0290916D02A0916E02B0916F023091B9
:1005300070020196A11DB11D232F2D5F2D3720F0D4
:100540002D570196A11DB11D2093700280936C025E
:1005500090936D02A0936E02B0936F028091680237
:1005600090916902A0916A02B0916B020196A11D5F
:10057000B11D8093680290936902A0936A02B093C0
:100580006B02BF91AF919F918F913F912F910F90EF
:100590000FBE0F901F9018959B01AC017FB7F89488
:1005A0008091680290916902A0916A02B0916B02F9
:1005B00066B5A89B05C06F3F19F00196A11DB11D3E
:1005C0007FBFBA2FA92F982F8827860F911DA11DB5
:1005D000B11D62E0880F991FAA1FBB1F6A95D1F752
:1005E000BC012DC0FFB7F894809168029091690218
:1005F000A0916A02B0916B02E6B5A89B05C0EF3FDF
:1006000019F00196A11DB11DFFBFBA2FA92F982F78
:1006100088278E0F911DA11DB11DE2E0880F991F43
:10062000AA1FBB1FEA95D1F7861B970B885E9340E4
:10063000C8F2215030404040504068517C4F211555
:1006400031054105510571F60895789484B58260AD
:1006500084BD84B5816084BD85B5826085BD85B566
:10066000816085BDEEE6F0E0808181608083E1E815
:10067000F0E010828081826080838081816080834D
:10068000E0E8F0E0808181608083E1EBF0E0808150
:1006900084608083E0EBF0E0808181608083E1E929
:1006A000F0E0808182608083808181608083E0E9E6
:1006B000F0E0808181608083E1EAF0E08081826007
:1006C0008083808181608083E0EAF0E080818160C6
:1006D0008083E1E2F1E080818260808380818160BB
:1006E0008083E0E2F1E0808181608083EAE7F0E0EE
:1006F000808184608083808182608083808181604A
:1007000080838081806880831092C10008951F9249
:100710000F920FB60F920BB60F9211242F933F93A7
:100720004F938F939F93EF93FF934091C600209137
:10073000B1023091B2022F5F3F4F2F733070809122
:10074000B3029091B4022817390759F0E091B10231
:10075000F091B202EF58FD4F40833093B2022093E4
:10076000B102FF91EF919F918F914F913F912F9106
:100770000F900BBE0F900FBE0F901F9018951F92F9
:100780000F920FB60F920BB60F9211242F933F9337
:100790004F938F939F93EF93FF934091CE002091BF
:1007A000390330913A032F5F3F4F2F7330708091A0
:1007B0003B0390913C032817390759F0E091390326
:1007C000F0913A03E750FD4F408330933A03209372
:1007D0003903FF91EF919F918F914F913F912F910D
:1007E0000F900BBE0F900FBE0F901F9018951F9289
:1007F0000F920FB60F920BB60F9211242F933F93C7
:100800004F938F939F93EF93FF934091D600209146
:10081000C1033091C2032F5F3F4F2F73307080911F
:10082000C3039091C4032817390759F0E091C1031D
:10083000F091C203EF57FC4F40833093C2032093E3
:10084000C103FF91EF919F918F914F913F912F9114
:100850000F900BBE0F900FBE0F901F9018951F9218
:100860000F920FB60F920BB60F9211242F933F9356
:100870004F938F939F93EF93FF9340913601209175
:10088000490430914A042F5F3F4F2F73307080919D
:100890004B0490914C042817390759F0E091490412
:1008A000F0914A04E75FFB4F408330934A04209362
:1008B0004904FF91EF919F918F914F913F912F911B
:1008C0000F900BBE0F900FBE0F901F9018951F92A8
:1008D0000F920FB60F920BB60F9211242F933F93E6
:1008E0008F939F93EF93FF932091F5023091F6023F
:1008F0008091F7029091F8022817390731F480911E
:10090000C1008F7D8093C10014C0E091F702F09187
:10091000F802EB54FD4F20818091F7029091F8028C
:1009200001968F7390709093F8028093F702209352
:10093000C600FF91EF919F918F913F912F910F9062
:100940000BBE0F900FBE0F901F9018951F920F9225
:100950000FB60F920BB60F9211242F933F938F93E4
:100960009F93EF93FF9320917D0330917E038091BD
:100970007F03909180032817390731F48091C900D3
:100980008F7D8093C90014C0E0917F03F0918003B4
:10099000E35CFC4F208180917F039091800301965E
:1009A0008F7390709093800380937F032093CE0089
:1009B000FF91EF919F918F913F912F910F900BBEDF
:1009C0000F900FBE0F901F9018951F920F920FB6A9
:1009D0000F920BB60F9211242F933F938F939F93F7
:1009E000EF93FF9320910504309106048091070452
:1009F000909108042817390731F48091D1008F7D38
:100A00008093D10014C0E0910704F0910804EB53E7
:100A1000FC4F2081809107049091080401968F7308
:100A2000907090930804809307042093D600FF9160
:100A3000EF919F918F913F912F910F900BBE0F904F
:100A40000FBE0F901F9018951F920F920FB60F9226
:100A50000BB60F9211242F933F938F939F93EF9395
:100A6000FF9320918D0430918E0480918F0490919A
:100A700090042817390731F4809131018F7D8093DC
:100A8000310114C0E0918F04F0919004E35BFB4FBF
:100A9000208180918F049091900401968F739070C3
:100AA0009093900480938F0420933601FF91EF91EF
:100AB0009F918F913F912F910F900BBE0F900FBE82
:100AC0000F901F901895AF92BF92DF92EF92FF9216
:100AD0000F931F93CF93DF93EC017A018B01DD24F9
:100AE000403081EE580780E0680780E0780711F019
:100AF000DD24D39491E0A92EB12CEC89FD89DD2071
:100B000069F0C5010E8C02C0880F991F0A94E2F7A4
:100B1000808360E079E08DE390E005C0108260E8BA
:100B200074E88EE190E0A80197010E945F092150CE
:100B3000304040405040569547953795279580E185
:100B40002030380720F0DD2011F0DD24D6CFE889F1
:100B5000F9893083EA89FB892083EE89FF89408106
:100B600021E030E0C9010A8C02C0880F991F0A9465
:100B7000E2F7482B4083EE89FF894081C9010B8C45
:100B800002C0880F991F0A94E2F7482B4083EE8930
:100B9000FF894081C9010C8C02C0880F991F0A94FB
:100BA000E2F7482B4083EE89FF8980810D8C02C0DB
:100BB000220F331F0A94E2F7209528232083DF9128
:100BC000CF911F910F91FF90EF90DF90BF90AF906A
:100BD0000895DC011C96ED91FC911D97E05CFF4FA0
:100BE0002191319180819181281B390B2F733070B5
:100BF000C9010895DC011C96ED91FC911D97E05C04
:100C0000FF4F20813181E054F040DF01AE5BBF4FE8
:100C10008D919C9111972817390719F42FEF3FEF09
:100C200007C08D919C91E80FF91F8081282F30E03B
:100C3000C9010895DC011C96ED91FC911D97E05CC3
:100C4000FF4F20813181E054F040DF01AE5BBF4FA8
:100C50008D919C9111972817390719F42FEF3FEFC9
:100C600010C08D919C911197E80FF91F20818D91F3
:100C70009C91119701968F73907011969C938E930F
:100C800030E0C9010895FC0186859785DC01A05CF0
:100C9000BF4FFC01EE5BFF4F2D913C91119780817E
:100CA000918128173907C1F70895CF93DF93EC019D
:100CB000EE85FF85E05CFF4F20813181E054F040FC
:100CC0002F5F3F4F2F733070DF01AE5BBF4F8D91B1
:100CD0009C91119728173907D1F3E05CFF4F808171
:100CE0009181E054F040E80FF91F6083EE85FF85A5
:100CF000E05CFF4F31832083EE89FF89208181E012
:100D000090E00D8C02C0880F991F0A94E2F7282BFF
:100D1000208381E090E0DF91CF9108951F9310929E
:100D200094041092930428EE33E040E050E02093C6
:100D300095043093960440939704509398046CE57F
:100D400072E0709392046093910481E792E0909333
:100D50009E0480939D0485EB92E09093A004809381
:100D60009F0485EC90E09093A2048093A10484EC0E
:100D700090E09093A4048093A30480EC90E090937F
:100D8000A6048093A50481EC90E09093A80480933E
:100D9000A70486EC90E09093AA048093A90414E041
:100DA0001093AB04B3E0B093AC04A7E0A093AD0400
:100DB000F5E0F093AE04E1E0E093AF041092B304E9
:100DC0001092B2042093B4043093B5044093B60457
:100DD0005093B7047093B1046093B00489EF92E02C
:100DE0009093BD048093BC048DE393E09093BF0483
:100DF0008093BE048DEC90E09093C1048093C00476
:100E00008CEC90E09093C3048093C20488EC90E053
:100E10009093C5048093C40489EC90E09093C70438
:100E20008093C6048EEC90E09093C9048093C8042C
:100E30001093CA04B093CB04A093CC04F093CD04D8
:100E4000E093CE041092D2041092D1042093D304E4
:100E50003093D4044093D5045093D6047093D004B7
:100E60006093CF0481E893E09093DC048093DB04EB
:100E700085EC93E09093DE048093DD0485ED90E0B3
:100E80009093E0048093DF0484ED90E09093E2047B
:100E90008093E10480ED90E09093E4048093E30478
:100EA00081ED90E09093E6048093E50486ED90E078
:100EB0009093E8048093E7041093E904B093EA0464
:100EC000A093EB04F093EC04E093ED041092F10492
:100ED0001092F0042093F2043093F3044093F4044E
:100EE0005093F5047093EF046093EE0489E094E06E
:100EF0009093FB048093FA048DE494E09093FD04B6
:100F00008093FC0485E391E09093FF048093FE04BA
:100F100084E391E0909301058093000580E391E0E4
:100F2000909303058093020581E391E0909305057A
:100F30008093040586E391E090930705809306056E
:100F400010930805B0930905A0930A05F0930B05CB
:100F5000E0930C051F910895CF92DF92EF92FF92DC
:100F60000F931F93CF93DF937C016B018A01C0E045
:100F7000D0E00FC0D6016D916D01D701ED91FC91CC
:100F80000190F081E02DC7011995C80FD91F0150BC
:100F900010400115110571F7CE01DF91CF911F911E
:100FA0000F91FF90EF90DF90CF900895DC01ED91CD
:100FB000FC910190F081E02D19950895EF92FF9238
:100FC0000F931F938C01DC01ED91FC910190F08156
:100FD000E02D6DE019957C01D801ED91FC91019017
:100FE000F081E02DC8016AE019959C012E0D3F1D8E
:100FF000C9011F910F91FF90EF900895CF93DF9358
:10100000DB010D900020E9F71197A61BB70BEC014F
:10101000E881F9810280F381E02DAD011995DF911E
:10102000CF9108954F925F927F928F929F92AF924D
:10103000BF92CF92DF92EF92FF920F931F93DF93B5
:10104000CF93CDB7DEB7A1970FB6F894DEBF0FBE32
:10105000CDBF2C01742ECB01223008F42AE019A256
:1010600031E2C32ED12CCC0EDD1E822E9924AA246F
:10107000BB24672D752FA50194010E945F0979019A
:101080008A01C801B701A50194010E944009472DBA
:10109000461B0894C108D1084A3014F4405D01C0D1
:1010A000495CF6014083E114F1040105110521F0CA
:1010B0007E2C5F2DC801DDCFC201B6010E94FE0764
:1010C000A1960FB6F894DEBF0FBECDBFCF91DF91D2
:1010D0001F910F91FF90EF90DF90CF90BF90AF9056
:1010E0009F908F907F905F904F900895DC01211525
:1010F000310541F4ED91FC910190F081E02D642FD8
:10110000199508950E9412080895CF92DF92EF92E8
:10111000FF920F931F936C017B019A0100E010E096
:10112000B801A7010E9476088C01C6010E94DE0763
:10113000080F191FC8011F910F91FF90EF90DF90CA
:10114000CF900895CF92DF92EF92FF920F931F936B
:10115000CF93DF93EC016A017B012115310541F446
:10116000E881F9810190F081E02D642F19951FC06D
:101170002A303105D1F477FF17C0E881F981019059
:10118000F081E02D6DE219958C0144275527BA01B5
:101190004C195D096E097F09CE012AE00E941208F0
:1011A0009801280F391F04C02AE00E9412089C01F0
:1011B000C901DF91CF911F910F91FF90EF90DF90C8
:1011C000CF900895EF92FF920F931F937B019A01A6
:1011D0000027F7FC0095102FB801A7010E94A20874
:1011E0001F910F91FF90EF900895CF92DF92EF92B1
:1011F000FF920F931F936C017B019A010027F7FC6C
:101200000095102FB801A7010E94A2088C01C60109
:101210000E94DE07080F191FC8011F910F91FF9050
:10122000EF90DF90CF9008950E94FE070895FC0193
:1012300088279927E89421912032E9F3293010F08A
:101240002E30C8F32B3241F02D3239F4689404C0AB
:101250000E943809820F911D219120532A30C0F33A
:101260001EF4909581959F4F0895F8940C948709EA
:101270007AE0979F902D879F802D910D11240895DE
:10128000629FD001739FF001829FE00DF11D649F6A
:10129000E00DF11D929FF00D839FF00D749FF00DF6
:1012A000659FF00D9927729FB00DE11DF91F639F97
:1012B000B00DE11DF91FBD01CF0111240895A1E278
:1012C0001A2EAA1BBB1BFD010DC0AA1FBB1FEE1FC0
:1012D000FF1FA217B307E407F50720F0A21BB30B0B
:1012E000E40BF50B661F771F881F991F1A9469F787
:1012F00060957095809590959B01AC01BD01CF01E3
:101300000895EE0FFF1F0590F491E02D1994F894C5
:02131000FFCF0D
:10131200456E74657220796F757220706172746E99
:1013220065722773207075626C6963206B65793A08
:101332002000707269766174655F6B65793A20008E
:101342007075626C69635F6B65795F413A2000700A
:1013520075626C69635F6B65795F423A20002000B9
:10136200757365723A200001000000005506AC0753
:08137200E9051A06FA0543061D
:00000001FF
