:100000000C9473000C949F000C949F000C949F0020
:100010000C949F000C949F000C949F000C949F00E4
:100020000C949F000C949F000C949F000C949F00D4
:100030000C949F000C949F000C949F000C949F00C4
:100040000C949F000C949F000C949F000C949F00B4
:100050000C949F000C949F000C949F000C9425021C
:100060000C949F000C9428030C9408040C949F009B
:100070000C949F000C949F000C949F000C949F0084
:100080000C949F000C949F000C949F000C949F0074
:100090000C9460030C9447040C949F000C949F00F4
:1000A0000C949F000C949F000C949F000C949F0054
:1000B0000C949F000C949F000C949F000C949F0044
:1000C0000C949F000C949F000C949F000C94980338
:1000D0000C9486040C949F000C94D0030C94C504DB
:1000E0000C949F00950611241FBECFEFD1E2DEBF16
:1000F000CDBF00E00CBF12E0A0E0B2E0EAEEF2E11A
:1001000000E00BBF02C007900D92A436B107D9F7EB
:1001100015E0A4E6B2E001C01D92A930B107E1F7F5
:1001200010E0C6EED0E004C02297FE010E946F09E5
:10013000C43ED107C9F70E945D010C9429090C94B3
:1001400000002F923F924F925F926F927F928F9218
:100150009F92AF92BF92CF92DF92EF92FF920F9356
:100160001F93CF93DF9319012A0157016801A8015A
:1001700097010E944B093B014C0181E0E82EF12CD4
:10018000012D112DC0E0D0E081E090E00C2E02C0E6
:10019000880F991F0A94E2F7AA2797FDA095BA2F16
:1001A00082219321A421B5210097A105B10579F001
:1001B000B301C401A80197010E942C09A601950171
:1001C0000E944B09AC01CB01DA017C018D01219623
:1001D000C132D10569F0B301C4019301A4010E94A9
:1001E0002C09A60195010E944B093B014C01CCCF83
:1001F000B701C801DF91CF911F910F91FF90EF9050
:10020000DF90CF90BF90AF909F908F907F906F9036
:100210005F904F903F902F9008958DE894E060E0BC
:1002200072E00E9413098DE894E00E942106BC014F
:100230008FEF6F3F7807B9F36A30710519F06D30B1
:10024000710599F48DE894E06AE00E945C068DE8FF
:1002500094E06DE00E945C068DE894E062E272E05A
:100260000E94160980E090E008958DE894E00E94D5
:100270005C06D9CF0F931F93CF93DF93C0E0D0E0FC
:1002800000E010E081E00E94F1019C0121703070DB
:10029000C20FD31FCC0FDD1F62E370E080E090E05F
:1002A0000E946D020F5F1F4F0031110559F7CE01FB
:1002B000DF91CF911F910F910895AF92BF92CF928E
:1002C000DF92EF92FF920F931F930E94C6020E944B
:1002D0003A018C012BE48B309207C8F78DE894E04B
:1002E00040E855E260E070E00E9404058DE894E08B
:1002F00063E372E00E9413098DE894E0B8014AE0DC
:1003000050E00E9484085801CC24DD2466E070E0AF
:1003100080E090E0A6019501FBE0EF2EFBE4FF2ECC
:10032000012D112D0E94A1007B018C018DE894E02C
:1003300061E472E00E9413098DE894E0B7014AE09D
:1003400050E00E94F4080E940D01AA2797FDA09595
:10035000BA2FBC01CD01A6019501EBE0EE2EEBE436
:10036000FE2E012D112D0E94A1008DE894E00E9427
:100370008A058AEE94E040E855E260E070E00E9471
:1003800004058AEE94E00E942106BC018FEF6F3FC6
:100390007807D1F08DE894E04AE050E00E94E1084F
:1003A0008DE894E060E572E00E9413098DE894E026
:1003B00060E00E945C068DE894E00E94DD078DE815
:1003C00094E060E00E945C068DE894E00E942106C3
:1003D0008F5F9F4FB1F28AEE94E060E00E945C066E
:1003E000D0CF382F863308F0365320917B00832FEF
:1003F00086958695869590E08170907043E0880F91
:10040000991F4A95E1F7277F282B20937B003770AF
:10041000809152028295880F880F807C832B809375
:100420007C0080917A00806480937A0080917A00C9
:1004300086FDFCCF2091780040917900942F80E0D8
:1004400030E0282B392BC90108951F920F920FB667
:100450000F9211242F933F938F939F93AF93BF934A
:100460008091680290916902A0916A02B0916B023A
:1004700030916C020196A11DB11D232F2D5F2D37E8
:1004800020F02D570196A11DB11D20936C02809381
:10049000680290936902A0936A02B0936B02809104
:1004A000640290916502A0916602B0916702019684
:1004B000A11DB11D8093640290936502A093660212
:1004C000B0936702BF91AF919F918F913F912F9110
:1004D0000F900FBE0F901F9018959B01AC017FB736
:1004E000F8948091640290916502A0916602B091A7
:1004F000670266B5A89B05C06F3F19F00196A11D64
:10050000B11D7FBFBA2FA92F982F8827860F911D65
:10051000A11DB11D62E0880F991FAA1FBB1F6A951C
:10052000D1F7BC012DC0FFB7F8948091640290917F
:100530006502A0916602B0916702E6B5A89B05C06E
:10054000EF3F19F00196A11DB11DFFBFBA2FA92FD2
:10055000982F88278E0F911DA11DB11DE2E0880FF5
:10056000991FAA1FBB1FEA95D1F7861B970B885EC0
:100570009340C8F2215030404040504068517C4F79
:10058000211531054105510571F60895789484B51A
:10059000826084BD84B5816084BD85B5826085BD7F
:1005A00085B5816085BDEEE6F0E080818160808365
:1005B000E1E8F0E010828081826080838081816048
:1005C0008083E0E8F0E0808181608083E1EBF0E00F
:1005D000808184608083E0EBF0E0808181608083B3
:1005E000E1E9F0E0808182608083808181608083A6
:1005F000E0E9F0E0808181608083E1EAF0E08081E1
:1006000082608083808181608083E0EAF0E0808185
:1006100081608083E1E2F1E080818260808380817B
:1006200081608083E0E2F1E0808181608083EAE79D
:10063000F0E080818460808380818260808380811B
:10064000816080838081806880831092C1000895DA
:100650001F920F920FB60F920BB60F9211242F9389
:100660003F934F938F939F93EF93FF934091C600D7
:100670002091AD023091AE022F5F3F4F2F7330704B
:100680008091AF029091B0022817390759F0E0919C
:10069000AD02F091AE02E359FD4F40833093AE02BC
:1006A0002093AD02FF91EF919F918F914F913F91D8
:1006B0002F910F900BBE0F900FBE0F901F901895AB
:1006C0001F920F920FB60F920BB60F9211242F9319
:1006D0003F934F938F939F93EF93FF934091CE005F
:1006E00020913503309136032F5F3F4F2F733070C9
:1006F00080913703909138032817390759F0E0911A
:100700003503F0913603EB50FD4F408330933603B1
:1007100020933503FF91EF919F918F914F913F91DE
:100720002F910F900BBE0F900FBE0F901F9018953A
:100730001F920F920FB60F920BB60F9211242F93A8
:100740003F934F938F939F93EF93FF934091D600E6
:100750002091BD033091BE032F5F3F4F2F73307048
:100760008091BF039091C0032817390759F0E09199
:10077000BD03F091BE03E358FC4F40833093BE03AA
:100780002093BD03FF91EF919F918F914F913F91E6
:100790002F910F900BBE0F900FBE0F901F901895CA
:1007A0001F920F920FB60F920BB60F9211242F9338
:1007B0003F934F938F939F93EF93FF934091360115
:1007C00020914504309146042F5F3F4F2F733070C6
:1007D00080914704909148042817390759F0E09117
:1007E0004504F0914604EB5FFB4F40833093460491
:1007F00020934504FF91EF919F918F914F913F91ED
:100800002F910F900BBE0F900FBE0F901F90189559
:100810001F920F920FB60F920BB60F9211242F93C7
:100820003F938F939F93EF93FF932091F102309129
:10083000F2028091F3029091F4022817390731F403
:100840008091C1008F7D8093C10014C0E091F302BC
:10085000F091F402EF54FD4F20818091F3029091CA
:10086000F40201968F7390709093F4028093F302D8
:100870002093C600FF91EF919F918F913F912F910F
:100880000F900BBE0F900FBE0F901F9018951F92E8
:100890000F920FB60F920BB60F9211242F933F9326
:1008A0008F939F93EF93FF932091790330917A0375
:1008B00080917B0390917C032817390731F4809154
:1008C000C9008F7D8093C90014C0E0917B03F09133
:1008D0007C03E75CFC4F208180917B0390917C033B
:1008E00001968F73907090937C0380937B03209389
:1008F000CE00FF91EF919F918F913F912F910F909B
:100900000BBE0F900FBE0F901F9018951F920F9265
:100910000FB60F920BB60F9211242F933F938F9324
:100920009F93EF93FF9320910104309102048091F3
:100930000304909104042817390731F48091D10001
:100940008F7D8093D10014C0E0910304F0910404E2
:10095000EF53FC4F20818091030490910404019691
:100960008F73907090930404809303042093D600B7
:10097000FF91EF919F918F913F912F910F900BBE1F
:100980000F900FBE0F901F9018951F920F920FB6E9
:100990000F920BB60F9211242F933F938F939F9337
:1009A000EF93FF932091890430918A0480918B0406
:1009B00090918C042817390731F4809131018F7D93
:1009C0008093310114C0E0918B04F0918C04E75BBB
:1009D000FB4F208180918B0490918C0401968F7342
:1009E000907090938C0480938B0420933601FF9138
:1009F000EF919F918F913F912F910F900BBE0F9090
:100A00000FBE0F901F901895AF92BF92DF92EF929A
:100A1000FF920F931F93CF93DF93EC017A018B0129
:100A2000DD24403081EE580780E0680780E07807D9
:100A300011F0DD24D39491E0A92EB12CEC89FD892D
:100A4000DD2069F0C5010E8C02C0880F991F0A9441
:100A5000E2F7808360E079E08DE390E005C01082EA
:100A600060E874E88EE190E0A80197010E944B09CC
:100A70002150304040405040569547953795279536
:100A800080E12030380720F0DD2011F0DD24D6CFC2
:100A9000E889F9893083EA89FB892083EE89FF8917
:100AA000408121E030E0C9010A8C02C0880F991F03
:100AB0000A94E2F7482B4083EE89FF894081C901FF
:100AC0000B8C02C0880F991F0A94E2F7482B4083D1
:100AD000EE89FF894081C9010C8C02C0880F991FE3
:100AE0000A94E2F7482B4083EE89FF8980810D8CC0
:100AF00002C0220F331F0A94E2F720952823208397
:100B0000DF91CF911F910F91FF90EF90DF90BF90F9
:100B1000AF900895CF93DF93DC011E968D919C9149
:100B20001F97EC01C05CDF4FFC01EE5BFF4F28819B
:100B300039818081918128173907C9F75696ED913F
:100B4000FC915797408121E030E0C9015A960C9002
:100B50005A9702C0880F991F0A94E2F78095842360
:100B600080835696ED91FC9157974081C9015B9621
:100B70000C905B9702C0880F991F0A94E2F780954A
:100B8000842380835696ED91FC9157974081C9014B
:100B90005C960C905C9702C0880F991F0A94E2F74C
:100BA0008095842380835696ED91FC9157978081A0
:100BB0005D960C905D9702C0220F331F0A94E2F7F6
:100BC0002095282320831C96ED91FC911D97EE5BC8
:100BD000FF4F8081918192938293DF91CF9108950D
:100BE000DC011C96ED91FC911D97E05CFF4F21917B
:100BF000319180819181281B390B2F733070C9018D
:100C00000895DC011C96ED91FC911D97E05CFF4F6F
:100C100020813181E054F040DF01AE5BBF4F8D9108
:100C20009C9111972817390719F42FEF3FEF07C050
:100C30008D919C91E80FF91F8081282F30E0C90128
:100C40000895DC011C96ED91FC911D97E05CFF4F2F
:100C500020813181E054F040DF01AE5BBF4F8D91C8
:100C60009C9111972817390719F42FEF3FEF10C007
:100C70008D919C911197E80FF91F20818D919C9186
:100C8000119701968F73907011969C938E9330E01C
:100C9000C9010895FC0186859785DC01A05CBF4FE2
:100CA000FC01EE5BFF4F2D913C911197808191816A
:100CB00028173907C1F70895CF93DF93EC01EE852C
:100CC000FF85E05CFF4F20813181E054F0402F5FD1
:100CD0003F4F2F733070DF01AE5BBF4F8D919C9102
:100CE000119728173907D1F3E05CFF4F808191817C
:100CF000E054F040E80FF91F6083EE85FF85E05C6B
:100D0000FF4F31832083EE89FF89208181E090E0CD
:100D10000D8C02C0880F991F0A94E2F7282B2083BC
:100D200081E090E0DF91CF9108951F93109290049D
:100D300010928F0428EE33E040E050E020939104BD
:100D400030939204409393045093940467E572E0C7
:100D500070938E0460938D048DE692E090939A04D4
:100D60008093990481EB92E090939C0480939B0480
:100D700085EC90E090939E0480939D0484EC90E039
:100D80009093A00480939F0480EC90E09093A20441
:100D90008093A10481EC90E09093A4048093A30439
:100DA00086EC90E09093A6048093A50414E0109341
:100DB000A704B3E0B093A804A7E0A093A904F5E0CA
:100DC000F093AA04E1E0E093AB041092AF04109218
:100DD000AE042093B0043093B1044093B204509316
:100DE000B3047093AD046093AC0485EF92E09093EC
:100DF000B9048093B80489E393E09093BB04809393
:100E0000BA048DEC90E09093BD048093BC048CEC0C
:100E100090E09093BF048093BE0488EC90E09093A0
:100E2000C1048093C00489EC90E09093C304809344
:100E3000C2048EEC90E09093C5048093C404109398
:100E4000C604B093C704A093C804F093C904E09308
:100E5000CA041092CE041092CD042093CF04309394
:100E6000D0044093D1045093D2047093CC04609387
:100E7000CB048DE793E09093D8048093D70481EC62
:100E800093E09093DA048093D90485ED90E09093F9
:100E9000DC048093DB0484ED90E09093DE04809387
:100EA000DD0480ED90E09093E0048093DF0481ED19
:100EB00090E09093E2048093E10486ED90E09093BB
:100EC000E4048093E3041093E504B093E604A09354
:100ED000E704F093E804E093E9041092ED04109223
:100EE000EC042093EE043093EF044093F00450930D
:100EF000F1047093EB046093EA0485E094E090932E
:100F0000F7048093F60489E494E09093F9048093C5
:100F1000F80485E391E09093FB048093FA0484E362
:100F200091E09093FD048093FC0480E391E0909322
:100F3000FF048093FE0481E391E090930105809388
:100F4000000586E391E090930305809302051093DA
:100F50000405B0930505A0930605F0930705E093FB
:100F600008051F910895CF92DF92EF92FF920F93A1
:100F70001F93CF93DF937C016B018A01C0E0D0E027
:100F80000FC0D6016D916D01D701ED91FC910190DB
:100F9000F081E02DC7011995C80FD91F01501040ED
:100FA0000115110571F7CE01DF91CF911F910F91BE
:100FB000FF90EF90DF90CF900895EF92FF920F9304
:100FC0001F938C01DC01ED91FC910190F081E02DEB
:100FD0006DE019957C01D801ED91FC910190F081B3
:100FE000E02DC8016AE019959C012E0D3F1DC90135
:100FF0001F910F91FF90EF900895CF93DF93DB0146
:101000000D900020E9F71197A61BB70BEC01E881C2
:10101000F9810280F381E02DAD011995DF91CF9127
:1010200008954F925F927F928F929F92AF92BF925C
:10103000CF92DF92EF92FF920F931F93DF93CF93A4
:10104000CDB7DEB7A1970FB6F894DEBF0FBECDBF08
:101050002C01742ECB01223008F42AE019A231E2CF
:10106000C32ED12CCC0EDD1E822E9924AA24BB24A3
:10107000672D752FA50194010E944B0979018A0102
:10108000C801B701A50194010E942C09472D461BF8
:101090000894C108D1084A3014F4405D01C0495C8D
:1010A000F6014083E114F1040105110521F07E2CC5
:1010B0005F2DC801DDCFC201B6010E94FD07A196D8
:1010C0000FB6F894DEBF0FBECDBFCF91DF911F9159
:1010D0000F91FF90EF90DF90CF90BF90AF909F90D7
:1010E0008F907F905F904F900895DC01211531051E
:1010F00041F4ED91FC910190F081E02D642F199560
:1011000008950E9411080895CF92DF92EF92FF9206
:101110000F931F936C017B019A0100E010E0B8016E
:10112000A7010E9475088C01C6010E94DD07080F07
:10113000191FC8011F910F91FF90EF90DF90CF9082
:101140000895CF92DF92EF92FF920F931F93CF9368
:10115000DF93EC016A017B012115310541F4E8813F
:10116000F9810190F081E02D642F19951FC02A307C
:101170003105D1F477FF17C0E881F9810190F08142
:10118000E02D6DE219958C0144275527BA014C19C1
:101190005D096E097F09CE012AE00E9411089801BD
:1011A000280F391F04C02AE00E9411089C01C901C0
:1011B000DF91CF911F910F91FF90EF90DF90CF9033
:1011C0000895EF92FF920F931F937B019A010027DE
:1011D000F7FC0095102FB801A7010E94A1081F91EC
:1011E0000F91FF90EF900895CF92DF92EF92FF92D0
:1011F0000F931F936C017B019A010027F7FC009568
:10120000102FB801A7010E94A1088C01C6010E94FD
:10121000DD07080F191FC8011F910F91FF90EF9074
:10122000DF90CF9008950E94FD070895EF92FF92FE
:101230000F931F937C010E94FD078C01C7010E9440
:10124000DD07080F191FC8011F910F91FF90EF9044
:101250000895F8940C947309629FD001739FF00174
:10126000829FE00DF11D649FE00DF11D929FF00D36
:10127000839FF00D749FF00D659FF00D9927729F6D
:10128000B00DE11DF91F639FB00DE11DF91FBD01F8
:10129000CF0111240895A1E21A2EAA1BBB1BFD0148
:1012A0000DC0AA1FBB1FEE1FFF1FA217B307E40745
:1012B000F50720F0A21BB30BE40BF50B661F771F9D
:1012C000881F991F1A9469F760957095809590957D
:1012D0009B01AC01BD01CF010895EE0FFF1F0590EA
:0A12E000F491E02D1994F894FFCF6B
:1012EA00456E74657220796F757220706172746EC2
:1012FA0065722773207075626C6963206B65793A31
:10130A002000456E7465726564206E756D62657243
:10131A003A2000707269766174655F6B65793A206C
:10132A00007075626C69635F6B65795F413A200092
:10133A00200001000000005C06B307F00521060149
:04134A00064A060049
:00000001FF
