:100000000C9473000C949F000C949F000C949F0020
:100010000C949F000C949F000C949F000C949F00E4
:100020000C949F000C949F000C949F000C949F00D4
:100030000C949F000C949F000C949F000C949F00C4
:100040000C949F000C949F000C949F000C949F00B4
:100050000C949F000C949F000C949F000C94AB0197
:100060000C949F000C9455020C9435030C949F0043
:100070000C949F000C949F000C949F000C949F0084
:100080000C949F000C949F000C949F000C949F0074
:100090000C948D020C9474030C949F000C949F009C
:1000A0000C949F000C949F000C949F000C949F0054
:1000B0000C949F000C949F000C949F000C949F0044
:1000C0000C949F000C949F000C949F000C94C5020C
:1000D0000C94B3030C949F000C94FD020C94F20357
:1000E0000C949F005C0511241FBECFEFD1E2DEBF50
:1000F000CDBF00E00CBF12E0A0E0B2E0E2E2F0E130
:1001000000E00BBF02C007900D92A234B107D9F7EF
:1001100014E0A2E4B2E001C01D92AB3EB107E1F7EA
:1001200010E0C6EED0E004C02297FE010E940B084A
:10013000C43ED107C9F70E940D010C949E070C9490
:1001400000002F923F924F925F926F927F928F9218
:100150009F92AF92BF92CF92DF92EF92FF920F9356
:100160001F93CF93DF9319012A0157016801A8015A
:1001700097010E94E7073B014C0181E0E82EF12C3A
:10018000012D112DC0E0D0E081E090E00C2E02C0E6
:10019000880F991F0A94E2F7AA2797FDA095BA2F16
:1001A00082219321A421B5210097A105B10579F001
:1001B000B301C401A80197010E94A107A6019501FE
:1001C0000E94E707AC01CB01DA017C018D01219689
:1001D000C132D10569F0B301C4019301A4010E94A9
:1001E000A107A60195010E94E7073B014C01CCCF76
:1001F000B701C801DF91CF911F910F91FF90EF9050
:10020000DF90CF90BF90AF909F908F907F906F9036
:100210005F904F903F902F900895EF92FF920F9331
:100220001F930E94F30167EA71E480E090E020E010
:1002300030E040E050E0BFEFEB2EBFEFFB2EBFEF12
:100240000B2FBFE71B2F0E94A1007B018C018FE6C3
:1002500094E060E072E00E949B078FE694E0B701B3
:100260004AE050E00E947C07E0904202F090430296
:100270008FE694E06FE072E00E949B078FE694E0C7
:10028000B7014AE050E00E947C070027F7FC009588
:10029000102FC801B70120E030E040E050E0AFEFA0
:1002A000EA2EAFEFFA2EAFEF0A2FAFE71A2F0E9418
:1002B000A1007B018C018FE694E06EE172E00E9468
:1002C0009B078FE694E0B7014AE050E00E947C076C
:1002D0008CEC94E040E855E260E070E00E9431046C
:1002E000C70160E071E00E94D407F82E8CEC94E026
:1002F0000E94E8042FEF8F3F9207C1F08F25682FEF
:10030000772767FD70956A30710519F06D307105BA
:1003100049F48FE694E06AE00E9423058FE694E0BA
:100320006DE002C08FE694E00E9423058FE694E022
:100330000E94E8048C018FEF0F3F1807B9F28FE697
:1003400094E0602F0E9423056F2D60278CEC94E0D1
:100350000E942305CBCF1F920F920FB60F9211244C
:100360002F933F938F939F93AF93BF9380914A02B4
:1003700090914B02A0914C02B0914D0230914E02EF
:100380000196A11DB11D232F2D5F2D3720F02D5774
:100390000196A11DB11D20934E0280934A029093B5
:1003A0004B02A0934C02B0934D0280914602909173
:1003B0004702A0914802B09149020196A11DB11DCA
:1003C0008093460290934702A0934802B09349025B
:1003D000BF91AF919F918F913F912F910F900FBE41
:1003E0000F901F901895789484B5826084BD84B571
:1003F000816084BD85B5826085BD85B5816085BD20
:10040000EEE6F0E0808181608083E1E8F0E0108238
:10041000808182608083808181608083E0E8F0E079
:10042000808181608083E1EBF0E080818460808363
:10043000E0EBF0E0808181608083E1E9F0E08081A1
:1004400082608083808181608083E0E9F0E0808148
:1004500081608083E1EAF0E0808182608083808136
:1004600081608083E0EAF0E0808181608083E1E266
:10047000F1E0808182608083808181608083E0E21E
:10048000F1E0808181608083EAE7F0E08081846030
:10049000808380818260808380818160808380818D
:1004A000806880831092C10008951F920F920FB64A
:1004B0000F920BB60F9211242F933F934F938F936C
:1004C0009F93EF93FF934091C60020918F0230914C
:1004D00090022F5F3F4F2F73307080919102909167
:1004E00092022817390759F0E0918F02F09190029B
:1004F000E15BFD4F40833093900220938F02FF9188
:10050000EF919F918F914F913F912F910F900BBE43
:100510000F900FBE0F901F9018951F920F920FB65D
:100520000F920BB60F9211242F933F934F938F93FB
:100530009F93EF93FF934091CE002091170330914A
:1005400018032F5F3F4F2F733070809119039091E4
:100550001A032817390759F0E0911703F09118038F
:10056000E952FD4F40833093180320931703FF9106
:10057000EF919F918F914F913F912F910F900BBED3
:100580000F900FBE0F901F9018951F920F920FB6ED
:100590000F920BB60F9211242F933F934F938F938B
:1005A0009F93EF93FF934091D60020919F0330914A
:1005B000A0032F5F3F4F2F7330708091A103909164
:1005C000A2032817390759F0E0919F03F091A00387
:1005D000E15AFC4F40833093A00320939F03FF9187
:1005E000EF919F918F914F913F912F910F900BBE63
:1005F0000F900FBE0F901F9018951F920F920FB67D
:100600000F920BB60F9211242F933F934F938F931A
:100610009F93EF93FF9340913601209127043091EF
:1006200028042F5F3F4F2F733070809129049091E1
:100630002A042817390759F0E0912704F09128047B
:10064000E951FC4F40833093280420932704FF9105
:10065000EF919F918F914F913F912F910F900BBEF2
:100660000F900FBE0F901F9018951F920F920FB60C
:100670000F920BB60F9211242F933F938F939F935A
:10068000EF93FF932091D3023091D4028091D50251
:100690009091D6022817390731F48091C1008F7DDF
:1006A0008093C10014C0E091D502F091D602ED56BE
:1006B000FD4F20818091D5029091D60201968F73D3
:1006C00090709093D6028093D5022093C600FF913C
:1006D000EF919F918F913F912F910F900BBE0F90B3
:1006E0000FBE0F901F9018951F920F920FB60F928A
:1006F0000BB60F9211242F933F938F939F93EF93F9
:10070000FF9320915B0330915C0380915D03909196
:100710005E032817390731F48091C9008F7D8093DB
:10072000C90014C0E0915D03F0915E03E55EFC4FEB
:10073000208180915D0390915E0301968F7390708C
:1007400090935E0380935D032093CE00FF91EF9121
:100750009F918F913F912F910F900BBE0F900FBEE5
:100760000F901F9018951F920F920FB60F920BB615
:100770000F9211242F933F938F939F93EF93FF93A7
:100780002091E3033091E4038091E5039091E60327
:100790002817390731F48091D1008F7D8093D100E3
:1007A00014C0E091E503F091E603ED55FC4F208184
:1007B0008091E5039091E60301968F73907090937A
:1007C000E6038093E5032093D600FF91EF919F917C
:1007D0008F913F912F910F900BBE0F900FBE0F90F6
:1007E0001F9018951F920F920FB60F920BB60F9293
:1007F00011242F933F938F939F93EF93FF93209117
:100800006B0430916C0480916D0490916E042817F4
:10081000390731F4809131018F7D8093310114C00B
:10082000E0916D04F0916E04E55DFB4F20818091B5
:100830006D0490916E0401968F73907090936E0486
:1008400080936D0420933601FF91EF919F918F91DA
:100850003F912F910F900BBE0F900FBE0F901F90E6
:100860001895AF92BF92DF92EF92FF920F931F9372
:10087000CF93DF93EC017A018B01DD24403081EED0
:10088000580780E0680780E0780711F0DD24D394F2
:1008900091E0A92EB12CEC89FD89DD2069F0C5011C
:1008A0000E8C02C0880F991F0A94E2F7808360E0E3
:1008B00079E08DE390E005C0108260E874E88EE195
:1008C00090E0A80197010E94E70721503040404086
:1008D0005040569547953795279580E12030380749
:1008E00020F0DD2011F0DD24D6CFE889F9893083AE
:1008F000EA89FB892083EE89FF89408121E030E08D
:10090000C9010A8C02C0880F991F0A94E2F7482B8C
:100910004083EE89FF894081C9010B8C02C0880F9A
:10092000991F0A94E2F7482B4083EE89FF894081A2
:10093000C9010C8C02C0880F991F0A94E2F7482B5A
:100940004083EE89FF8980810D8C02C0220F331F06
:100950000A94E2F7209528232083DF91CF911F91FD
:100960000F91FF90EF90DF90BF90AF900895DC0162
:100970001C96ED91FC911D97E05CFF4F2191319108
:1009800080819181281B390B2F733070C901089524
:10099000DC011C96ED91FC911D97E05CFF4F2081DE
:1009A0003181E054F040DF01AE5BBF4F8D919C91EF
:1009B00011972817390719F42FEF3FEF07C08D91D2
:1009C0009C91E80FF91F8081282F30E0C90108951C
:1009D000DC011C96ED91FC911D97E05CFF4F20819E
:1009E0003181E054F040DF01AE5BBF4F8D919C91AF
:1009F00011972817390719F42FEF3FEF10C08D9189
:100A00009C911197E80FF91F20818D919C9111976E
:100A100001968F73907011969C938E9330E0C9016C
:100A20000895FC0186859785DC01A05CBF4FFC0121
:100A3000EE5BFF4F2D913C9111978081918128179A
:100A40003907C1F70895CF93DF93EC01EE85FF8559
:100A5000E05CFF4F20813181E054F0402F5F3F4F39
:100A60002F733070DF01AE5BBF4F8D919C9111975A
:100A700028173907D1F3E05CFF4F80819181E05462
:100A8000F040E80FF91F6083EE85FF85E05CFF4FC3
:100A900031832083EE89FF89208181E090E00D8CF5
:100AA00002C0880F991F0A94E2F7282B208381E067
:100AB00090E0DF91CF9108951F93109272041092ED
:100AC000710428EE33E040E050E02093730430934B
:100AD0007404409375045093760466E372E0709357
:100AE000700460936F048FE492E090937C04809391
:100AF0007B0483E992E090937E0480937D0485ECEF
:100B000090E09093800480937F0484EC90E0909335
:100B100082048093810480EC90E09093840480931D
:100B2000830481EC90E0909386048093850486ECA6
:100B300090E0909388048093870414E010938904D4
:100B4000B3E0B0938A04A7E0A0938B04F5E0F093A0
:100B50008C04E1E0E0938D041092910410929004D3
:100B600020939204309393044093940450939504FB
:100B700070938F0460938E0487ED92E090939B04B2
:100B800080939A048BE193E090939D0480939C045E
:100B90008DEC90E090939F0480939E048CEC90E009
:100BA0009093A1048093A00488EC90E09093A30418
:100BB0008093A20489EC90E09093A5048093A40410
:100BC0008EEC90E09093A7048093A6041093A80461
:100BD000B093A904A093AA04F093AB04E093AC04EF
:100BE0001092B0041092AF042093B1043093B20479
:100BF0004093B3045093B4047093AE046093AD0477
:100C00008FE593E09093BA048093B90483EA93E06C
:100C10009093BC048093BB0485ED90E09093BE0458
:100C20008093BD0484ED90E09093C0048093BF0452
:100C300080ED90E09093C2048093C10481ED90E038
:100C40009093C4048093C30486ED90E09093C6040F
:100C50008093C5041093C704B093C804A093C9043B
:100C6000F093CA04E093CB041092CF041092CE0408
:100C70002093D0043093D1044093D2045093D304F2
:100C80007093CD046093CC0487EE93E09093D904E5
:100C90008093D8048BE294E09093DB048093DA0491
:100CA00085E391E09093DD048093DC0484E391E09C
:100CB0009093DF048093DE0480E391E09093E1045D
:100CC0008093E00481E391E09093E3048093E20455
:100CD00086E391E09093E5048093E4041093E604A6
:100CE000B093E704A093E804F093E904E093EA04E6
:100CF0001F910895CF92DF92EF92FF920F931F936F
:100D0000CF93DF937C016B018A01C0E0D0E00FC07C
:100D1000D6016D916D01D701ED91FC910190F081AB
:100D2000E02DC7011995C80FD91F015010400115BA
:100D3000110571F7CE01DF91CF911F910F91FF90B7
:100D4000EF90DF90CF900895EF92FF920F931F9353
:100D50008C01DC01ED91FC910190F081E02D6DE0C2
:100D600019957C01D801ED91FC910190F081E02D65
:100D7000C8016AE019959C012E0D3F1DC9011F9104
:100D80000F91FF90EF900895CF93DF93DB010D90CB
:100D90000020E9F71197A61BB70BEC01E881F98158
:100DA0000280F381E02DAD011995DF91CF91089577
:100DB0004F925F927F928F929F92AF92BF92CF920B
:100DC000DF92EF92FF920F931F93DF93CF93CDB7F4
:100DD000DEB7A1970FB6F894DEBF0FBECDBF2C01D2
:100DE000742ECB01223008F42AE019A231E2C32E7E
:100DF000D12CCC0EDD1E822E9924AA24BB24672D73
:100E0000752FA50194010E94E70779018A01C801A5
:100E1000B701A50194010E94A107472D461B089424
:100E2000C108D1084A3014F4405D01C0495CF601A4
:100E30004083E114F1040105110521F07E2C5F2DA2
:100E4000C801DDCFC201B6010E94C406A1960FB64B
:100E5000F894DEBF0FBECDBFCF91DF911F910F91F0
:100E6000FF90EF90DF90CF90BF90AF909F908F90CA
:100E70007F905F904F900895CF92DF92EF92FF9214
:100E80000F931F93CF93DF93EC016A017B01211530
:100E9000310541F4E881F9810190F081E02D642F62
:100EA00019951FC02A303105D1F477FF17C0E881AA
:100EB000F9810190F081E02D6DE219958C014427B4
:100EC0005527BA014C195D096E097F09CE012AE048
:100ED0000E94D8069801280F391F04C02AE00E94FA
:100EE000D8069C01C901DF91CF911F910F91FF900E
:100EF000EF90DF90CF900895CF92DF92EF92FF9224
:100F00000F931F936C017B019A010027F7FC00955A
:100F1000102FB801A7010E943C078C01C6010E9456
:100F2000A406080F191FC8011F910F91FF90EF90A1
:100F3000DF90CF9008950E94C4060895F8940C9411
:100F40000F08629FD001739FF001829FE00DF11D99
:100F5000649FE00DF11D929FF00D839FF00D749F33
:100F6000F00D659FF00D9927729FB00DE11DF91FDF
:100F7000639FB00DE11DF91FBD01CF01112408953C
:100F8000AA1BBB1B51E107C0AA1FBB1FA617B707AF
:100F900010F0A61BB70B881F991F5A95A9F78095CB
:100FA0009095BC01CD01089597FB092E07260AD024
:100FB00077FD04D0E5DF06D000201AF47095619526
:100FC0007F4F0895F6F7909581959F4F0895A1E280
:100FD0001A2EAA1BBB1BFD010DC0AA1FBB1FEE1FB3
:100FE000FF1FA217B307E407F50720F0A21BB30BFE
:100FF000E40BF50B661F771F881F991F1A9469F77A
:1010000060957095809590959B01AC01BD01CF01D5
:101010000895EE0FFF1F0590F491E02D1994F894B8
:02102000FFCF00
:101022005075626C6963206B657920413A200050EB
:1010320075626C6963206B657920423A20005468BE
:101042006520736861726564206B65792069733A03
:1010520020000000000023057A06B704E804C80453
:02106200110576
:00000001FF
