:100000000C9473000C949F000C949F000C949F0020
:100010000C949F000C949F000C949F000C949F00E4
:100020000C949F000C949F000C949F000C949F00D4
:100030000C949F000C949F000C949F000C949F00C4
:100040000C949F000C949F000C949F000C949F00B4
:100050000C949F000C949F000C949F000C9416022B
:100060000C949F000C9419030C94F9030C949F00BA
:100070000C949F000C949F000C949F000C949F0084
:100080000C949F000C949F000C949F000C949F0074
:100090000C9451030C9438040C949F000C949F0012
:1000A0000C949F000C949F000C949F000C949F0054
:1000B0000C949F000C949F000C949F000C949F0044
:1000C0000C949F000C949F000C949F000C94890347
:1000D0000C9477040C949F000C94C1030C94B60408
:1000E0000C949F00200611241FBECFEFD1E2DEBF8B
:1000F000CDBF00E00CBF12E0A0E0B2E0EAEAF1E11F
:1001000000E00BBF02C007900D92A434B107D9F7ED
:1001100014E0A4E4B2E001C01D92AD3EB107E1F7E6
:1001200010E0C6EED0E004C02297FE010E94CF0886
:10013000C43ED107C9F70E943E010C9462080C949A
:1001400000002F923F924F925F926F927F928F9218
:100150009F92AF92BF92CF92DF92EF92FF920F9356
:100160001F93CF93DF9319012A0157016801A8015A
:1001700097010E94AB083B014C0181E0E82EF12C75
:10018000012D112DC0E0D0E081E090E00C2E02C0E6
:10019000880F991F0A94E2F7AA2797FDA095BA2F16
:1001A00082219321A421B5210097A105B10579F001
:1001B000B301C401A80197010E946508A601950139
:1001C0000E94AB08AC01CB01DA017C018D012196C4
:1001D000C132D10569F0B301C4019301A4010E94A9
:1001E0006508A60195010E94AB083B014C01CCCFEC
:1001F000B701C801DF91CF911F910F91FF90EF9050
:10020000DF90CF90BF90AF909F908F907F906F9036
:100210005F904F903F902F900895EF92FF920F9331
:100220001F93CF93DF93EE24FF248701C0E0D0E03B
:1002300081E00E94E201AA2797FDA095BA2F817064
:100240009070A070B070E80EF91E0A1F1B1FEE0C14
:10025000FF1C001F111F62E370E080E090E00E942D
:100260005E022196C032D10519F7B701C801DF91AE
:10027000CF911F910F91FF90EF900895AF92BF9291
:10028000CF92DF92EF92FF920F931F930E94B702DB
:100290000E940D015B016C01CC24DD2467EA71E44E
:1002A00080E090E0A60195011FEFE12E1FEFF12EF7
:1002B0001FEF012F1FE7112F0E94A1007B018C016E
:1002C00081E794E060E072E00E945F0881E794E0DB
:1002D000B7014AE050E00E944008E0904402F090EC
:1002E000450281E794E06FE072E00E945F0881E7D9
:1002F00094E0B7014AE050E00E9440080027F7FC74
:100300000095102FC801B701A6019501BFEFEB2E94
:10031000BFEFFB2EBFEF0B2FBFE71B2F0E94A100EB
:100320007B018C0181E794E06EE172E00E945F083E
:1003300081E794E0B7014AE050E00E9440088EEC6B
:1003400094E040E855E260E070E00E94F504C701E7
:1003500060E071E00E949808F82E8EEC94E00E9414
:10036000AC052FEF8F3F9207C1F08F25682F7727BD
:1003700067FD70956A30710519F06D30710549F4AB
:1003800081E794E06AE00E94E70581E794E06DE090
:1003900002C081E794E00E94E70581E794E00E94B3
:1003A000AC058C018FEF0F3F1807B9F281E794E09D
:1003B000602F0E94E7056F2D60278EEC94E00E946D
:1003C000E705CBCF382F863308F0365320917B00DA
:1003D000832F86958695869590E08170907043E096
:1003E000880F991F4A95E1F7277F282B20937B00E0
:1003F0003770809132028295880F880F807C832B22
:1004000080937C0080917A00806480937A00809150
:100410007A0086FDFCCF2091780040917900942FDE
:1004200080E030E0282B392BC90108951F920F92EC
:100430000FB60F9211242F933F938F939F93AF93F7
:10044000BF9380914C0290914D02A0914E02B091C9
:100450004F02309150020196A11DB11D232F2D5F37
:100460002D3720F02D570196A11DB11D209350026C
:1004700080934C0290934D02A0934E02B0934F0292
:100480008091480290914902A0914A02B0914B029A
:100490000196A11DB11D8093480290934902A0933B
:1004A0004A02B0934B02BF91AF919F918F913F91C0
:1004B0002F910F900FBE0F901F9018959B01AC01CC
:1004C0007FB7F8948091480290914902A0914A0226
:1004D000B0914B0266B5A89B05C06F3F19F001961D
:1004E000A11DB11D7FBFBA2FA92F982F8827860F76
:1004F000911DA11DB11D62E0880F991FAA1FBB1F8E
:100500006A95D1F7BC012DC0FFB7F89480914802DD
:1005100090914902A0914A02B0914B02E6B5A89B86
:1005200005C0EF3F19F00196A11DB11DFFBFBA2F05
:10053000A92F982F88278E0F911DA11DB11DE2E0D4
:10054000880F991FAA1FBB1FEA95D1F7861B970B2F
:10055000885E9340C8F2215030404040504068517E
:100560007C4F211531054105510571F608957894A8
:1005700084B5826084BD84B5816084BD85B58260A8
:1005800085BD85B5816085BDEEE6F0E08081816046
:100590008083E1E8F0E01082808182608083808146
:1005A00081608083E0E8F0E0808181608083E1EB1E
:1005B000F0E0808184608083E0EBF0E08081816006
:1005C0008083E1E9F0E080818260808380818160C6
:1005D0008083E0E9F0E0808181608083E1EAF0E0FF
:1005E000808182608083808181608083E0EAF0E0A6
:1005F000808181608083E1E2F1E08081826080839C
:10060000808181608083E0E2F1E08081816080838D
:10061000EAE7F0E08081846080838081826080836B
:100620008081816080838081806880831092C10096
:1006300008951F920F920FB60F920BB60F921124CE
:100640002F933F934F938F939F93EF93FF934091FB
:10065000C60020919102309192022F5F3F4F2F737D
:10066000307080919302909194022817390759F0C5
:10067000E0919102F0919202EF5AFD4F4083309346
:10068000920220939102FF91EF919F918F914F9150
:100690003F912F910F900BBE0F900FBE0F901F90A8
:1006A00018951F920F920FB60F920BB60F9211244E
:1006B0002F933F934F938F939F93EF93FF9340918B
:1006C000CE002091190330911A032F5F3F4F2F73F3
:1006D000307080911B0390911C032817390759F043
:1006E000E0911903F0911A03E752FD4F40833093D4
:1006F0001A0320931903FF91EF919F918F914F91CE
:100700003F912F910F900BBE0F900FBE0F901F9037
:1007100018951F920F920FB60F920BB60F921124DD
:100720002F933F934F938F939F93EF93FF9340911A
:10073000D6002091A1033091A2032F5F3F4F2F736A
:1007400030708091A3039091A4032817390759F0C2
:10075000E091A103F091A203EF59FC4F4083309345
:10076000A2032093A103FF91EF919F918F914F914D
:100770003F912F910F900BBE0F900FBE0F901F90C7
:1007800018951F920F920FB60F920BB60F9211246D
:100790002F933F934F938F939F93EF93FF934091AA
:1007A00036012091290430912A042F5F3F4F2F7387
:1007B000307080912B0490912C042817390759F040
:1007C000E0912904F0912A04E751FC4F40833093D3
:1007D0002A0420932904FF91EF919F918F914F91CB
:1007E0003F912F910F900BBE0F900FBE0F901F9057
:1007F00018951F920F920FB60F920BB60F921124FD
:100800002F933F938F939F93EF93FF932091D50264
:100810003091D6028091D7029091D80228173907DB
:1008200031F48091C1008F7D8093C10014C0E091AC
:10083000D702F091D802EB56FD4F20818091D7026C
:100840009091D80201968F7390709093D802809304
:10085000D7022093C600FF91EF919F918F913F9116
:100860002F910F900BBE0F900FBE0F901F901895F9
:100870001F920F920FB60F920BB60F9211242F9367
:100880003F938F939F93EF93FF9320915D0330915C
:100890005E0380915F03909160032817390731F45C
:1008A0008091C9008F7D8093C90014C0E0915F03DF
:1008B000F0916003E35EFC4F208180915F03909193
:1008C000600301968F7390709093600380935F0331
:1008D0002093CE00FF91EF919F918F913F912F91A7
:1008E0000F900BBE0F900FBE0F901F9018951F9288
:1008F0000F920FB60F920BB60F9211242F933F93C6
:100900008F939F93EF93FF932091E5033091E6033C
:100910008091E7039091E8032817390731F480911B
:10092000D1008F7D8093D10014C0E091E703F09156
:10093000E803EB55FC4F20818091E7039091E80399
:1009400001968F7390709093E8038093E703209350
:10095000D600FF91EF919F918F913F912F910F9032
:100960000BBE0F900FBE0F901F9018951F920F9205
:100970000FB60F920BB60F9211242F933F938F93C4
:100980009F93EF93FF9320916D0430916E048091BB
:100990006F04909170042817390731F48091310168
:1009A0008F7D8093310114C0E0916F04F091700449
:1009B000E35DFB4F208180916F049091700401965C
:1009C0008F7390709093700480936F04209336011E
:1009D000FF91EF919F918F913F912F910F900BBEBF
:1009E0000F900FBE0F901F901895AF92BF92DF929D
:1009F000EF92FF920F931F93CF93DF93EC017A0155
:100A00008B01DD24403081EE580780E0680780E0EC
:100A1000780711F0DD24D39491E0A92EB12CEC8954
:100A2000FD89DD2069F0C5010E8C02C0880F991F79
:100A30000A94E2F7808360E079E08DE390E005C0FE
:100A4000108260E874E88EE190E0A80197010E94AE
:100A5000AB0821503040404050405695479537955F
:100A6000279580E12030380720F0DD2011F0DD24CB
:100A7000D6CFE889F9893083EA89FB892083EE891A
:100A8000FF89408121E030E0C9010A8C02C0880F53
:100A9000991F0A94E2F7482B4083EE89FF89408131
:100AA000C9010B8C02C0880F991F0A94E2F7482BEA
:100AB0004083EE89FF894081C9010C8C02C0880FF8
:100AC000991F0A94E2F7482B4083EE89FF898081C1
:100AD0000D8C02C0220F331F0A94E2F720952823C1
:100AE0002083DF91CF911F910F91FF90EF90DF90C6
:100AF000BF90AF900895DC011C96ED91FC911D977D
:100B0000E05CFF4F2191319180819181281B390B4D
:100B10002F733070C9010895DC011C96ED91FC9192
:100B20001D97E05CFF4F20813181E054F040DF01F0
:100B3000AE5BBF4F8D919C9111972817390719F41F
:100B40002FEF3FEF07C08D919C91E80FF91F808137
:100B5000282F30E0C9010895DC011C96ED91FC912D
:100B60001D97E05CFF4F20813181E054F040DF01B0
:100B7000AE5BBF4F8D919C9111972817390719F4DF
:100B80002FEF3FEF10C08D919C911197E80FF91F47
:100B900020818D919C91119701968F739070119681
:100BA0009C938E9330E0C9010895FC01868597855A
:100BB000DC01A05CBF4FFC01EE5BFF4F2D913C912F
:100BC00011978081918128173907C1F70895CF9334
:100BD000DF93EC01EE85FF85E05CFF4F20813181E2
:100BE000E054F0402F5F3F4F2F733070DF01AE5B5A
:100BF000BF4F8D919C91119728173907D1F3E05C75
:100C0000FF4F80819181E054F040E80FF91F60832D
:100C1000EE85FF85E05CFF4F31832083EE89FF89FD
:100C2000208181E090E00D8C02C0880F991F0A940A
:100C3000E2F7282B208381E090E0DF91CF910895A7
:100C40001F93109274041092730428EE33E040E076
:100C500050E02093750430937604409377045093CA
:100C6000780467E372E0709372046093710481E525
:100C700092E090937E0480937D0485E992E09093C6
:100C8000800480937F0485EC90E0909382048093AD
:100C9000810484EC90E0909384048093830480EC3E
:100CA00090E0909386048093850481EC90E090938B
:100CB00088048093870486EC90E090938A04809364
:100CC000890414E010938B04B3E0B0938C04A7E084
:100CD000A0938D04F5E0F0938E04E1E0E0938F049F
:100CE00010929304109292042093940430939504EC
:100CF00040939604509397047093910460939004EA
:100D000089ED92E090939D0480939C048DE193E0A3
:100D100090939F0480939E048DEC90E09093A104A7
:100D20008093A0048CEC90E09093A3048093A204A1
:100D300088EC90E09093A5048093A40489EC90E063
:100D40009093A7048093A6048EEC90E09093A9045E
:100D50008093A8041093AA04B093AB04A093AC04AE
:100D6000F093AD04E093AE041092B2041092B1047B
:100D70002093B3043093B4044093B5045093B60465
:100D80007093B0046093AF0481E693E09093BC0449
:100D90008093BB0485EA93E09093BE048093BD04E6
:100DA00085ED90E09093C0048093BF0484ED90E0C3
:100DB0009093C2048093C10480ED90E09093C404AA
:100DC0008093C30481ED90E09093C6048093C504A2
:100DD00086ED90E09093C8048093C7041093C904F3
:100DE000B093CA04A093CB04F093CC04E093CD0459
:100DF0001092D1041092D0042093D2043093D304E3
:100E00004093D4045093D5047093CF046093CE04E0
:100E100089EE93E09093DB048093DA048DE294E012
:100E20009093DD048093DC0485E391E09093DF04EC
:100E30008093DE0484E391E09093E1048093E004E6
:100E400080E391E09093E3048093E20481E391E0F6
:100E50009093E5048093E40486E391E09093E704A3
:100E60008093E6041093E804B093E904A093EA04A5
:100E7000F093EB04E093EC041F910895CF92DF927E
:100E8000EF92FF920F931F93CF93DF937C016B013F
:100E90008A01C0E0D0E00FC0D6016D916D01D7018D
:100EA000ED91FC910190F081E02DC7011995C80FDB
:100EB000D91F015010400115110571F7CE01DF91C6
:100EC000CF911F910F91FF90EF90DF90CF900895F9
:100ED000EF92FF920F931F938C01DC01ED91FC9137
:100EE0000190F081E02D6DE019957C01D801ED9124
:100EF000FC910190F081E02DC8016AE019959C01F8
:100F00002E0D3F1DC9011F910F91FF90EF90089585
:100F1000CF93DF93DB010D900020E9F71197A61B1B
:100F2000B70BEC01E881F9810280F381E02DAD017E
:100F30001995DF91CF9108954F925F927F928F9292
:100F40009F92AF92BF92CF92DF92EF92FF920F9358
:100F50001F93DF93CF93CDB7DEB7A1970FB6F89469
:100F6000DEBF0FBECDBF2C01742ECB01223008F4A2
:100F70002AE019A231E2C32ED12CCC0EDD1E822E26
:100F80009924AA24BB24672D752FA50194010E94E2
:100F9000AB0879018A01C801B701A50194010E943B
:100FA0006508472D461B0894C108D1084A3014F43F
:100FB000405D01C0495CF6014083E114F104010584
:100FC000110521F07E2C5F2DC801DDCFC201B601D5
:100FD0000E948807A1960FB6F894DEBF0FBECDBF62
:100FE000CF91DF911F910F91FF90EF90DF90CF9005
:100FF000BF90AF909F908F907F905F904F9008959B
:10100000CF92DF92EF92FF920F931F93CF93DF93D4
:10101000EC016A017B012115310541F4E881F98178
:101020000190F081E02D642F19951FC02A30310501
:10103000D1F477FF17C0E881F9810190F081E02DAC
:101040006DE219958C0144275527BA014C195D09A9
:101050006E097F09CE012AE00E949C079801280FA3
:10106000391F04C02AE00E949C079C01C901DF913E
:10107000CF911F910F91FF90EF90DF90CF90089547
:10108000CF92DF92EF92FF920F931F936C017B013F
:101090009A010027F7FC0095102FB801A7010E94C4
:1010A00000088C01C6010E946807080F191FC801BB
:1010B0001F910F91FF90EF90DF90CF9008950E94C5
:1010C00088070895F8940C94D308629FD001739F09
:1010D000F001829FE00DF11D649FE00DF11D929FD4
:1010E000F00D839FF00D749FF00D659FF00D992713
:1010F000729FB00DE11DF91F639FB00DE11DF91F37
:10110000BD01CF0111240895AA1BBB1B51E107C0EB
:10111000AA1FBB1FA617B70710F0A61BB70B881F87
:10112000991F5A95A9F780959095BC01CD01089516
:1011300097FB092E07260AD077FD04D0E5DF06D0FD
:1011400000201AF4709561957F4F0895F6F79095F9
:1011500081959F4F0895A1E21A2EAA1BBB1BFD018A
:101160000DC0AA1FBB1FEE1FFF1FA217B307E40786
:10117000F50720F0A21BB30BE40BF50B661F771FDE
:10118000881F991F1A9469F76095709580959095BE
:101190009B01AC01BD01CF010895EE0FFF1F05902B
:0A11A000F491E02D1994F894FFCFAC
:1011AA005075626C6963206B657920413A20005062
:1011BA0075626C6963206B657920423A2000546835
:1011CA006520736861726564206B65792069733A7A
:1011DA0020000100000000E7053E077B05AC058CF6
:0411EA0005D5050022
:00000001FF
