:100000000C9403010C942F010C942F010C942F01DC
:100010000C942F010C942F010C942F010C942F01A0
:100020000C942F010C942F010C942F010C942F0190
:100030000C942F010C942F010C942F010C942F0180
:100040000C942F010C942F010C942F010C942F0170
:100050000C942F010C942F010C942F010C94690423
:100060000C942F010C945D060C943D070C942F0109
:100070000C942F010C942F010C942F010C942F0140
:100080000C942F010C942F010C942F010C942F0130
:100090000C9495060C947C070C942F010C942F0162
:1000A0000C942F010C942F010C942F010C942F0110
:1000B0000C942F010C942F010C942F010C942F0100
:1000C0000C942F010C942F010C942F010C94CD064D
:1000D0000C94BB070C942F010C9405070C94FA07A1
:1000E0000C942F0100002100240027002A002D007D
:1000F0003000330001010000040107010A01000083
:100100002200250028002B002E00310034000201BF
:100110000000050108010B0100002000230026005B
:1001200029002C002F00320000010000030106010D
:10013000090105050505070508080808020202026D
:100140000A0A080804040404010101010101010173
:100150000303030303030303040707070C0C0C0C3E
:100160000C0C0C0C02020202060606060606060627
:100170000B0B0B0B0B0B0B0B0102102020080810B4
:100180002040102040800201020108040201010207
:1001900004081020408080402010080402018004E0
:1001A000020180402010080402010804020101023B
:1001B0000408102040800102040810204080000044
:1001C000090A02080B0C0D070603040100000000D9
:1001D000000000000000000000000000000000001F
:1001E0000000000000000000000011100F000000DF
:1001F00000000000000000000000000000000000FF
:1002000000000000640911241FBECFEFD1E2DEBF61
:10021000CDBF00E00CBF12E0A0E0B2E0E8E5F8E1FD
:1002200000E00BBF02C007900D92A835B107D9F7C7
:1002300015E0A8E5B2E001C01D92A530B107E1F7D5
:1002400012E0C6E0D2E004C02297FE010E94260C14
:10025000C430D107C9F70E946C030C94B90B0C94FD
:1002600000002F923F924F925F926F927F928F92F7
:100270009F92AF92BF92CF92DF92EF92FF920F9335
:100280001F93CF93DF9319012A0157016801A80139
:1002900097010E94020C3B014C0181E0E82EF12CF9
:1002A000012D112DC0E0D0E081E090E00C2E02C0C5
:1002B000880F991F0A94E2F7AA2797FDA095BA2FF5
:1002C00082219321A421B5210097A105B10579F0E0
:1002D000B301C401A80197010E94BC0BA6019501BE
:1002E0000E94020CAC01CB01DA017C018D01219648
:1002F000C132D10569F0B301C4019301A4010E9488
:10030000BC0BA60195010E94020C3B014C01CCCF15
:10031000B701C801DF91CF911F910F91FF90EF902E
:10032000DF90CF90BF90AF909F908F907F906F9015
:100330005F904F903F902F9008954F925F926F92F1
:100340007F928F929F92AF92BF92CF92DF92EF9265
:10035000FF920F931F9356EE452E54E0552EC20187
:100360000E94F0083C01C2010E94F0087C01C20119
:100370000E94F0085C01C2010E94F0080027F7FC0F
:100380000095102F102F0F2DFE2CEE24CC24B7FC3F
:10039000C094DC2C6501BB24AA24EA28FB280C2984
:1003A0001D29882477FC8094982CE628F7280829B2
:1003B0001929AA2797FDA095BA2FB82FAA27992700
:1003C0008827E82AF92A0A2B1B2BB701C8011F919D
:1003D0000F91FF90EF90DF90CF90BF90AF909F90E4
:1003E0008F907F906F905F904F900895CF92DF92A3
:1003F000EF92FF920F931F937B018C01F6EECF2EAD
:10040000F4E0DF2EC6016E2D0E942B095527412FE7
:10041000302F2F2DC601622F0E942B0998014427EF
:100420005527C601622F0E942B09E12EFF240027C9
:100430001127C6016E2D0E942B091F910F91FF906D
:10044000EF90DF90CF9008958DE00E942D060895E3
:100450008F929F92AF92BF92CF92DF92EF92FF92D4
:100460001F93CF93DF93182F4A015B010E94B104C1
:100470006B017C01C80CD91CEA1CFB1CC12FD0E00D
:1004800086EE94E00E94BF088C179D0784F4B7FCA9
:1004900007C00E94B1046C157D058E059F0538F4D8
:1004A00061E070E080E090E00E94BF04E9CF86EE5A
:1004B00094E00E94BF0820E08C179D070CF021E01B
:1004C000822FDF91CF911F91FF90EF90DF90CF901F
:1004D000BF90AF909F908F9008951F93CF93DF931D
:1004E000EC010E94B104BBC02097C1F486EE94E0F9
:1004F00063E40E942B0960915C0270915D0280911F
:100500005E0290915F020E94F60189E894E060E04B
:1005100072E00E94A60BC1E0D0E0A1C0C130D105BD
:1005200079F485E048EE53E060E070E00E94280234
:10053000882309F49DC086EE94E00E94F00898C0DC
:10054000C230D105D9F481E048EE53E060E070E0BC
:100550000E942802182F89E894E066E072E00E9469
:10056000A60B112309F47BC086EE94E00E94F008EC
:10057000833409F074C0C3E0D0E071C0C330D1054A
:1005800031F584E048EE53E060E070E00E9428021C
:10059000882309F462C00E949D0160935C027093FD
:1005A0005D0280935E0290935F0286EE94E061E4C8
:1005B0000E942B09609158027091590280915A0251
:1005C00090915B020E94F601C4E0D0E048C0C430C4
:1005D000D105B1F481E048EE53E060E070E00E94A4
:1005E00028028823D1F186EE94E00E94F00881343D
:1005F00071F186EE94E00E94F008833481F52AC000
:10060000C530D10561F484E048EE53E060E070E06D
:100610000E942802882309F1C6E0D0E020C0C6303D
:10062000D105E9F481E048EE53E060E070E00E941B
:100630002802882391F086EE94E00E94F00883342B
:1006400049F086EE94E00E94F008813441F4C7E05E
:10065000D0E005C0C5E0D0E002C0C2E0D0E0C730C5
:10066000D10509F041CF81E0DF91CF911F9108952D
:10067000C0E0D0E0F4CFEF92FF920F931F93CF939F
:10068000DF93EE24FF248701C0E0D0E081E00E94E8
:100690003504AA2797FDA095BA2F81709070A0709D
:1006A000B070E80EF91E0A1F1B1FEE0CFF1C001F86
:1006B000111F62E370E080E090E00E94BF04219689
:1006C000C032D10519F7B701C801DF91CF911F9151
:1006D0000F91FF90EF900895AF92BF92CF92DF926B
:1006E000EF92FF920F931F930E9418058DE060E038
:1006F0000E947A0589E894E040E855E260E070E005
:100700000E94390886EE94E040E855E260E070E02F
:100710000E9439080E9424028C0189E894E06DE06F
:1007200072E00E94A30B89E894E0B8014AE050E02F
:100730000E94840B012B19F082E090E002C080E05F
:1007400090E00E946D020E943B035B016C01CC248F
:10075000DD2467EA71E480E090E0A60195011FEFD7
:10076000E12E1FEFF12E1FEF012F1FE7112F0E9427
:1007700031017B018C0189E894E064E172E00E9420
:10078000A30B89E894E0B7014AE050E00E94840B93
:10079000E0905802F090590289E894E063E272E038
:1007A0000E94A30B89E894E0B7014AE050E00E9460
:1007B000840B0027F7FC0095102FC801B701A60194
:1007C0009501BFEFEB2EBFEFFB2EBFEF0B2FBFE767
:1007D0001B2F0E9431017B018C0189E894E062E3C8
:1007E00072E00E94A30B89E894E0B7014AE050E070
:1007F0000E94840BC70160E071E00E94EF0BF82EAD
:1008000086EE94E00E94F0082FEF8F3F9207C1F030
:100810008F25682F772767FD70956A30710519F06D
:100820006D30710549F489E894E06AE00E942B0973
:1008300089E894E06DE002C089E894E00E942B0909
:1008400089E894E00E94F0088C018FEF0F3F1807B1
:10085000B9F289E894E0602F0E942B096F2D602780
:1008600086EE94E00E942B09CBCF382F863308F018
:10087000365320917B00832F86958695869590E050
:100880008170907043E0880F991F4A95E1F7277FA8
:10089000282B20937B003770809146028295880F29
:1008A000880F807C832B80937C0080917A00806409
:1008B00080937A0080917A0086FDFCCF20917800A9
:1008C00040917900942F80E030E0282B392BC9012A
:1008D00008951F920F920FB60F9211242F933F93FA
:1008E0008F939F93AF93BF93809164029091650221
:1008F000A0916602B0916702309168020196A11D35
:10090000B11D232F2D5F2D3720F02D570196A11DEE
:10091000B11D209368028093640290936502A093B6
:100920006602B09367028091600290916102A0918B
:100930006202B09163020196A11DB11D8093600215
:1009400090936102A0936202B0936302BF91AF9152
:100950009F918F913F912F910F900FBE0F901F90FD
:1009600018958FB7F89420916402309165024091F8
:100970006602509167028FBFB901CA0108959B01B9
:10098000AC017FB7F8948091600290916102A091D0
:100990006202B091630266B5A89B05C06F3F19F073
:1009A0000196A11DB11D7FBFBA2FA92F982F8827AF
:1009B000860F911DA11DB11D62E0880F991FAA1F0E
:1009C000BB1F6A95D1F7BC012DC0FFB7F894809189
:1009D000600290916102A0916202B0916302E6B55B
:1009E000A89B05C0EF3F19F00196A11DB11DFFBFE7
:1009F000BA2FA92F982F88278E0F911DA11DB11DE9
:100A0000E2E0880F991FAA1FBB1FEA95D1F7861B4A
:100A1000970B885E9340C8F22150304040405040D0
:100A200068517C4F211531054105510571F6089536
:100A3000789484B5826084BD84B5816084BD85B5B9
:100A4000826085BD85B5816085BDEEE6F0E0808180
:100A500081608083E1E8F0E01082808182608083A1
:100A6000808181608083E0E8F0E080818160808324
:100A7000E1EBF0E0808184608083E0EBF0E0808156
:100A800081608083E1E9F0E0808182608083808101
:100A900081608083E0E9F0E0808181608083E1EA29
:100AA000F0E0808182608083808181608083E0EAE1
:100AB000F0E0808181608083E1E2F1E0808182600A
:100AC0008083808181608083E0E2F1E080818160C9
:100AD0008083EAE7F0E080818460808380818260A7
:100AE0008083808181608083808180688083109290
:100AF000C1000895CF93DF93482F50E0CA01885872
:100B00009E4FFC0134914E5C5E4FFA018491882324
:100B100069F190E0880F991FFC01EC51FF4FA591FE
:100B2000B491FC01E250FF4FC591D491662351F47A
:100B30002FB7F8948C91932F909589238C9388816B
:100B400089230BC0623061F42FB7F8948C91932FF6
:100B5000909589238C938881832B88832FBF06C02F
:100B60009FB7F8948C91832B8C939FBFDF91CF918B
:100B70000895893009F449C08A30A0F4843051F1D5
:100B8000853040F4823079F1833000F5813009F00E
:100B900063C026C0873079F1883098F5863009F037
:100BA0005BC025C08D3009F442C08E3028F48B30F4
:100BB000B1F18C30C0F52DC0803109F442C08131D3
:100BC00009F445C08F3009F047C037C080918000DC
:100BD0008F7703C0809180008F7D8093800008957F
:100BE00084B58F7702C084B58F7D84BD08958091D0
:100BF000B0008F7703C08091B0008F7D8093B000EC
:100C00000895809190008F7707C0809190008F7D2C
:100C100003C080919000877F809390000895809119
:100C2000A0008F7707C08091A0008F7D03C08091C6
:100C3000A000877F8093A0000895809120018F7786
:100C400003C0809120018F7D8093200108958091C1
:100C50002001877F8093200108950F931F93482FD1
:100C600050E0CA0182549E4FFC012491CA01885869
:100C70009E4FFC0104914E5C5E4FFA0114911123CA
:100C800019F420E030E015C0222319F0822F0E94D1
:100C9000B905812F90E0880F991F885E9E4FFC0157
:100CA000A591B4918C9120E030E0802311F021E0F7
:100CB00030E0C9011F910F9108951F920F920FB656
:100CC0000F920BB60F9211242F933F934F938F9354
:100CD0009F93EF93FF934091C6002091A90230911A
:100CE000AA022F5F3F4F2F7330708091AB0290911B
:100CF000AC022817390759F0E091A902F091AA0235
:100D0000E759FD4F40833093AA022093A902FF9137
:100D1000EF919F918F914F913F912F910F900BBE2B
:100D20000F900FBE0F901F9018951F920F920FB645
:100D30000F920BB60F9211242F933F934F938F93E3
:100D40009F93EF93FF934091CE0020913103309118
:100D500032032F5F3F4F2F73307080913303909198
:100D600034032817390759F0E0913103F091320329
:100D7000EF50FD4F40833093320320933103FF91B6
:100D8000EF919F918F914F913F912F910F900BBEBB
:100D90000F900FBE0F901F9018951F920F920FB6D5
:100DA0000F920BB60F9211242F933F934F938F9373
:100DB0009F93EF93FF934091D6002091B903309118
:100DC000BA032F5F3F4F2F7330708091BB03909118
:100DD000BC032817390759F0E091B903F091BA0321
:100DE000E758FC4F40833093BA032093B903FF9137
:100DF000EF919F918F914F913F912F910F900BBE4B
:100E00000F900FBE0F901F9018951F920F920FB664
:100E10000F920BB60F9211242F933F934F938F9302
:100E20009F93EF93FF9340913601209141043091BD
:100E300042042F5F3F4F2F73307080914304909195
:100E400044042817390759F0E0914104F091420415
:100E5000EF5FFB4F40833093420420934104FF91A6
:100E6000EF919F918F914F913F912F910F900BBEDA
:100E70000F900FBE0F901F9018951F920F920FB6F4
:100E80000F920BB60F9211242F933F938F939F9342
:100E9000EF93FF932091ED023091EE028091EF02EB
:100EA0009091F0022817390731F48091C1008F7DAD
:100EB0008093C10014C0E091EF02F091F002E3557D
:100EC000FD4F20818091EF029091F00201968F7387
:100ED00090709093F0028093EF022093C600FF91F0
:100EE000EF919F918F913F912F910F900BBE0F909B
:100EF0000FBE0F901F9018951F920F920FB60F9272
:100F00000BB60F9211242F933F938F939F93EF93E0
:100F1000FF93209175033091760380917703909130
:100F200078032817390731F48091C9008F7D8093A9
:100F3000C90014C0E0917703F0917803EB5CFC4F9B
:100F40002081809177039091780301968F73907040
:100F500090937803809377032093CE00FF91EF91D5
:100F60009F918F913F912F910F900BBE0F900FBECD
:100F70000F901F9018951F920F920FB60F920BB6FD
:100F80000F9211242F933F938F939F93EF93FF938F
:100F90002091FD033091FE038091FF0390910004A6
:100FA0002817390731F48091D1008F7D8093D100CB
:100FB00014C0E091FF03F0910004E354FC4F208142
:100FC0008091FF039091000401968F73907090932D
:100FD00000048093FF032093D600FF91EF919F912F
:100FE0008F913F912F910F900BBE0F900FBE0F90DE
:100FF0001F9018951F920F920FB60F920BB60F927B
:1010000011242F933F938F939F93EF93FF932091FE
:101010008504309186048091870490918804281774
:10102000390731F4809131018F7D8093310114C0F3
:10103000E0918704F0918804EB5BFB4F2081809165
:1010400087049091880401968F7390709093880420
:101050008093870420933601FF91EF919F918F91A8
:101060003F912F910F900BBE0F900FBE0F901F90CE
:101070001895AF92BF92DF92EF92FF920F931F935A
:10108000CF93DF93EC017A018B01DD24403081EEB8
:10109000580780E0680780E0780711F0DD24D394DA
:1010A00091E0A92EB12CEC89FD89DD2069F0C50104
:1010B0000E8C02C0880F991F0A94E2F7808360E0CB
:1010C00079E08DE390E005C0108260E874E88EE17D
:1010D00090E0A80197010E94020C2150304040404E
:1010E0005040569547953795279580E12030380731
:1010F00020F0DD2011F0DD24D6CFE889F989308396
:10110000EA89FB892083EE89FF89408121E030E074
:10111000C9010A8C02C0880F991F0A94E2F7482B74
:101120004083EE89FF894081C9010B8C02C0880F82
:10113000991F0A94E2F7482B4083EE89FF8940818A
:10114000C9010C8C02C0880F991F0A94E2F7482B42
:101150004083EE89FF8980810D8C02C0220F331FEE
:101160000A94E2F7209528232083DF91CF911F91E5
:101170000F91FF90EF90DF90BF90AF900895DC014A
:101180001C96ED91FC911D97E05CFF4F21913191F0
:1011900080819181281B390B2F733070C90108950C
:1011A000DC011C96ED91FC911D97E05CFF4F2081C6
:1011B0003181E054F040DF01AE5BBF4F8D919C91D7
:1011C00011972817390719F42FEF3FEF07C08D91BA
:1011D0009C91E80FF91F8081282F30E0C901089504
:1011E000DC011C96ED91FC911D97E05CFF4F208186
:1011F0003181E054F040DF01AE5BBF4F8D919C9197
:1012000011972817390719F42FEF3FEF10C08D9170
:101210009C911197E80FF91F20818D919C91119756
:1012200001968F73907011969C938E9330E0C90154
:101230000895FC0186859785DC01A05CBF4FFC0109
:10124000EE5BFF4F2D913C91119780819181281782
:101250003907C1F70895CF93DF93EC01EE85FF8541
:10126000E05CFF4F20813181E054F0402F5F3F4F21
:101270002F733070DF01AE5BBF4F8D919C91119742
:1012800028173907D1F3E05CFF4F80819181E0544A
:10129000F040E80FF91F6083EE85FF85E05CFF4FAB
:1012A00031832083EE89FF89208181E090E00D8CDD
:1012B00002C0880F991F0A94E2F7282B208381E04F
:1012C00090E0DF91CF9108951F9310928C041092BB
:1012D0008B0428EE33E040E050E020938D043093FF
:1012E0008E0440938F04509390046BE472E07093EB
:1012F0008A046093890489E692E09093960480932F
:1013000095048DEA92E0909398048093970485EC7D
:1013100090E090939A048093990484EC90E09093E9
:101320009C0480939B0480EC90E090939E048093B7
:101330009D0481EC90E09093A00480939F0486EC40
:1013400090E09093A2048093A10414E01093A3046E
:10135000B3E0B093A404A7E0A093A504F5E0F09354
:10136000A604E1E0E093A7041092AB041092AA0453
:101370002093AC043093AD044093AE045093AF047B
:101380007093A9046093A80481EF92E09093B50450
:101390008093B40485E393E09093B7048093B604FC
:1013A0008DEC90E09093B9048093B8048CEC90E0BD
:1013B0009093BB048093BA0488EC90E09093BD04B2
:1013C0008093BC0489EC90E09093BF048093BE04AA
:1013D0008EEC90E09093C1048093C0041093C204FB
:1013E000B093C304A093C404F093C504E093C6046F
:1013F0001092CA041092C9042093CB043093CC04F9
:101400004093CD045093CE047093C8046093C704F6
:1014100089E793E09093D4048093D3048DEB93E019
:101420009093D6048093D50485ED90E09093D804F2
:101430008093D70484ED90E09093DA048093D904EC
:1014400080ED90E09093DC048093DB0481ED90E0EC
:101450009093DE048093DD0486ED90E09093E004A9
:101460008093DF041093E104B093E204A093E304BB
:10147000F093E404E093E5041092E9041092E80488
:101480002093EA043093EB044093EC045093ED0472
:101490007093E7046093E60481E094E09093F30492
:1014A0008093F20485E494E09093F5048093F4042F
:1014B00085E391E09093F7048093F60484E391E050
:1014C0009093F9048093F80480E391E09093FB04F7
:1014D0008093FA0481E391E09093FD048093FC04EF
:1014E00086E391E09093FF048093FE04109300053F
:1014F000B0930105A0930205F0930305E093040562
:101500001F910895CF92DF92EF92FF920F931F9356
:10151000CF93DF937C016B018A01C0E0D0E00FC064
:10152000D6016D916D01D701ED91FC910190F08193
:10153000E02DC7011995C80FD91F015010400115A2
:10154000110571F7CE01DF91CF911F910F91FF909F
:10155000EF90DF90CF900895EF92FF920F931F933B
:101560008C01DC01ED91FC910190F081E02D6DE0AA
:1015700019957C01D801ED91FC910190F081E02D4D
:10158000C8016AE019959C012E0D3F1DC9011F91EC
:101590000F91FF90EF900895CF93DF93DB010D90B3
:1015A0000020E9F71197A61BB70BEC01E881F98140
:1015B0000280F381E02DAD011995DF91CF9108955F
:1015C0004F925F927F928F929F92AF92BF92CF92F3
:1015D000DF92EF92FF920F931F93DF93CF93CDB7DC
:1015E000DEB7A1970FB6F894DEBF0FBECDBF2C01BA
:1015F000742ECB01223008F42AE019A231E2C32E66
:10160000D12CCC0EDD1E822E9924AA24BB24672D5A
:10161000752FA50194010E94020C79018A01C8016D
:10162000B701A50194010E94BC0B472D461B0894ED
:10163000C108D1084A3014F4405D01C0495CF6018C
:101640004083E114F1040105110521F07E2C5F2D8A
:10165000C801DDCFC201B6010E94CC0AA1960FB627
:10166000F894DEBF0FBECDBFCF91DF911F910F91D8
:10167000FF90EF90DF90CF90BF90AF909F908F90B2
:101680007F905F904F900895CF92DF92EF92FF92FC
:101690000F931F93CF93DF93EC016A017B01211518
:1016A000310541F4E881F9810190F081E02D642F4A
:1016B00019951FC02A303105D1F477FF17C0E88192
:1016C000F9810190F081E02D6DE219958C0144279C
:1016D0005527BA014C195D096E097F09CE012AE030
:1016E0000E94E00A9801280F391F04C02AE00E94D6
:1016F000E00A9C01C901DF91CF911F910F91FF90EA
:10170000EF90DF90CF900895CF92DF92EF92FF920B
:101710000F931F936C017B019A010027F7FC009542
:10172000102FB801A7010E94440B8C01C6010E9432
:10173000AC0A080F191FC8011F910F91FF90EF907D
:10174000DF90CF9008950E94CC0A0895EF92FF9207
:101750000F931F937C010E94CC0A8C01C7010E9449
:10176000AC0A080F191FC8011F910F91FF90EF904D
:101770000895F8940C942A0C629FD001739FF00195
:10178000829FE00DF11D649FE00DF11D929FF00D11
:10179000839FF00D749FF00D659FF00D9927729F48
:1017A000B00DE11DF91F639FB00DE11DF91FBD01D3
:1017B000CF0111240895AA1BBB1B51E107C0AA1F2A
:1017C000BB1FA617B70710F0A61BB70B881F991FE2
:1017D0005A95A9F780959095BC01CD01089597FB86
:1017E000092E07260AD077FD04D0E5DF06D00020B9
:1017F0001AF4709561957F4F0895F6F7909581954D
:101800009F4F0895A1E21A2EAA1BBB1BFD010DC01C
:10181000AA1FBB1FEE1FFF1FA217B307E407F507A0
:1018200020F0A21BB30BE40BF50B661F771F881F7C
:10183000991F1A9469F760957095809590959B0112
:10184000AC01BD01CF010895EE0FFF1F0590F4918B
:08185000E02D1994F894FFCF7C
:101858005374617274004C697374656E006D6F64C3
:10186800653A20005075626C6963206B6579204188
:101878003A20005075626C6963206B657920423AA2
:10188800200054686520736861726564206B65790F
:101898002069733A200001000000002B09820ABF6A
:0818A80008F008D0081909003E
:00000001FF
